:400000000010002011000000812800008128000008B502F037FCC04638B50D4C23688025ED022B432360302002F07EFD094A0A4B1A601022094B1A6080221206084B1A6089
:400040002560084A084B1A600022084B1A6038BD00010B400600008004010B400802024008010B4001000080000002400C020B4010B572B6002410E0344863001A195200B5
:40008000821891881B195B001A5AC31858880004104302F059FC0134E4B2012CECD92B49081C0C30303102F035FCEE221202284B1A60284A284B1A60284B294A1360294AE0
:4000C00029490A6029490B6029482A4908602A490B602A490A602A4A13602A4A2A4B1A602A4B197802220A431A70294802783C218A4328390A430270197816220A431A7020
:40010000FF22244B1A60244B24490B60442024490860244824490860802040012349086023490A60234A13602022234B1A60234A234B1A600D23234A13602349234A1160B0
:40014000234A1360FFF768FF10BDC046DC3B00000C000140FFFF0000100001400400990000500F400000555504500F4010500F400000052414500F4020500F4024500F4026
:4001800030500F400000055134500F4000700F4001700F400000044049922400080004400001044089ED0800080104400C010440000204400802044000030440891D260031
:4001C00008030440000404408E0D0000080404401804044010B5064C2378002B07D1054B002B02D0044800E000BF0123237010BDE000002000000000F82F000008B5084B75
:40020000002B03D00748084900E000BF07480368002B00D108BD064B002BFBD09847F9E700000000F82F0000E4000020C8000020000000000122014B1A707047FC00002021
:4002400008B50A1C4001034BC118101C132201F025FA08BD9403002010B5441E6401194BE418002304E0184AD25CE25401339BB21F2BF8D9022321E0144AD15C021C3032C0
:40028000914219D15A1C11498A5C3A2A14D102339BB2002207E0D01D215401339BB2013292B21F2A03D80949C95C2029F3D80732A4180023237004E001339BB2044A9342BB
:4002C000DAD910BD94030020F83A000014040020FF03000070B5012002F07CFD012002F0DBFC5F4802F0BAFD00F060F9002002F071FD002002F0D0FC5A4B00221A705A70AE
:4003000002329A708132DA70343A1A71453A5A71A0329A71553ADA710121534A995462B6524B1B78002B04D00022504B1A7000F03DF902F0ABFC041C02E002F0A7FC041CD8
:40034000072CFAD0032C54D9062002F055FB062002F006FB052C18D102F0A6FB041C02F09DFB00022418C823DB019C466444A4B23C4D285DC043C0B202F0ECFA0134285D52
:40038000C043C0B202F032FB1FE002F08DFB041C02F084FB00022418354B9C466444A4B202F030FD002807D0324B1B195878C043C0B202F01BFB02E0002002F017FB2D4B67
:4003C000185DC043C0B202F0C5FA002002F05AFB02F05CFC01E002F059FC0728FBD1063802F00AFB012002F0BBFA012002F04AFB96E702F059FB041C02F050FB00022418DB
:40040000C823DB019C466444A4B202F0E9FA154DC0432855661C02F02FFBC043A855002002F030FB02F032FC01E002F02FFC0728FBD1063802F026FB0B4B9C4200D06FE7BF
:40044000012002F029FC012002F0C4FC054801F0DFFD002002F020FC002002F0BBFC5FE73502000014040020FE030000FC0000200080FFFFFC2F000010B50024201C02F0CE
:40048000A9FC01231C1BE4B2FA2002F02BFB044B1B78002BF2D00022014B1A70FFF71AFFFC00002000B583B018481949012201F0F5F8002801D0FFF7DFFF144815498022AE
:4004C000D20001AB01F0BAF9002801D0FFF7D4FF019B114A1370190A517003E000210E4AD15401330D4A9342F8D90120FFF7B4FE0220FFF7B1FE0320FFF7AEFE0420FFF799
:40050000ABFE024801F094FB03B000BD6C030020203B00001604002014040020FF01000008B50020024901F09BF8FFF7BBFF08BD3C01002010B582B019481A49022201F02E
:40054000ADF8002801D0FFF797FF154C201C002101F07CFB201C01F095FC002801D0FFF78BFF11490B784A7812029A1802310C4801AB01F023FA002801D0FFF77DFF0120C2
:40058000FFF76AFE0220FFF767FE0320FFF764FE0420FFF761FE024801F04AFB02B010BD6C030020203B00001404002010B5FA20400002F097FA0020134901F051F80023D0
:4005C00003E00A21114AD1540133114A9342F8D910481149122201F061F8002801D0FFF74BFF0C4C201C002101F030FB201C01F049FC002801D0FFF73FFF064801F018FB0D
:40060000FFF750FF10BDC0463C01002014040020FF030000140800202C3B000004E00A7802701A1C01310130531E002AF7D1704702E001701A1C0130531E002AF9D1704707
:4006400070B5031C002001E0291C331C541E002A07D05E1C1B784D1C0878181A221C0028F2D070BD00E001300378002B01D08B42F9D1181C7047C04630B5002500231EE076
:400680005A00D21892001E4C1259002A15D00468A24213D15A00D2189200194CA21852688468A2420AD15A00D2189200144CA2181489C288944201D103E001350133022BF9
:4006C000DED9032B09D1002D03D1022903D1002014E0002012E0122010E000290BD15A00D3189B00064AD3185A8980235B009A4203D1102002E0102000E0002030BDC0460D
:4007000000010020002000E00130022806D843001B189B00044A9B58002BF5D10338431E9841C0B27047C0460001002070B500231AE05A00D21892002D4C12590468A2420B
:4007400011D15A00D2189200294CA21852688468A24208D15A00D2189200254CA2181489C288944202D00133022BE2D9032B1CD101E0013300E00023022B06D85A00D21801
:4007800092001B4C1259002AF3D1032B2CD0184D5A00D418A400066866512A1984685460C488101C148100224281002907D05A00D21892000E4882185289002A16D1002999
:4007C00008D15A00D218920009498A185189013189B201E0802149005A00D2189200044882185181581C02E0002000E0002070BD00010020013802281CD843001B189B008A
:400800000E4AD3185A8980235B009A4200D10022002A01D0013A92B243001B189B000749CB185A81002A07D14300181880004250002002E0022000E00020704700010020A9
:4008400010B500220CE053009B189B0006495B58834204D153009B189B0000245C500132022AF0D910BDC04600010020F8B55F4656464D464446F0B48A460C6800E00134D3
:4008800023782F2BFBD05C2BF9D083699B46181C20210B22FFF7CCFE0026002308270022904600E04B465A1C9146E55C202D39D92F2D37D05C2D35D02E2D01D0BE420AD331
:4008C000082F58D12E2D58D143469B00DBB2984608260337E6E76BB2002B06DA032342461A439046803D2A4B5D5D2A48291CFFF7B9FE002843D12B1C413B192B04D80223B3
:4009000042461A43904609E02B1C613B192B05D8012342461A439046203DEDB25B469D550136BFE74C4453461C60202D01D8042200E00022002E24D05B461B78E52B02D198
:40094000E03B59460B70082F03D143469B00DBB29846032341460B40012B01D10F331A430C2341460B40042B01D104331A435B46DA72002006E0062004E0062002E0062052
:4009800000E006203CBC90469946A246AB46F8BD383B0000B83B000010B50B1C09330269002A34D04469002208E0A05C202807D0052800D1E030187001320133072AF4D902
:4009C000227A202A0CD02E221A700133263A05E0A05C202804D01870013201330A2AF7D9E27A0A72E27F1006A27F12040243607F00020243207F02430A60627E1202207E06
:400A000002438A80E27D1202A07D0243CA8000221A7010BDF0B583B0C66A8E4235D00F1C041C0379002B23D030239C4684446346019340786146321C012301F06BFE002880
:400A400025D100232371236AE26994466344B3420ED9E5780AE0E3699C46664460780199321C012301F056FE013DEDB2012DF2D8002F0ED0211C303160783A1C012301F089
:400A800013FE002807D1E76206E0002004E0012002E0002000E0012003B0F0BD10B5041C0A1C011C30314078012301F0FDFD002830D11C4BE35C1B021B4AA25C13431BB2AC
:400AC0001A4A934228D16923E35C19066823E25C13040B436722A25C120213436622A25C13431B021B0A124A934217D08523E35C19068423E25C13040B438322A25C12027E
:400B000013438222A25C13431B021B0A084A934206D106E0032004E0022002E0002000E0012010BD2F0200002E02000055AAFFFF4641540008B500280CD00378002B0BD0CD
:400B4000C3888B420AD1407801F012FDC30707D5032006E0092004E0092002E0092000E0002008BDF8B55F4656464D464446F0B403681C78303C092C05D85D783A2D04D1D8
:400B80000233036002E0002400E00024002C00D07AE1A300CE48C3185D6A0D60002D00D174E1161C2B78002B0CD0687801F0E0FCC30707D4002E00D16AE1430700D569E140
:400BC0000020AAE100232B70E0B2687001F0DAFCC30700D560E1002E02D0430700D55DE1281C0021FFF75AFF01281AD1F9235B00EB5C002B17D0FA23FF33EC5C2406013B89
:400C0000EB5C1B041C43F823FF33EB5C1B022343FB225200AC5C1C43281C211CFFF73EFF02E0002400E00024032800D138E1002800D037E13C23EB5C1B023B22AA5C1343A3
:400C40001BB280229200934200D02DE14723EF5C3B02BB3AFF3AAF5C1F430DD15723EF5C3F06013BEB5C1B041F435523EB5C1B023B430E32AF5C1F43EF614023EB5CEB70EB
:400C80005A1E012A00D911E17B439B463D23E95CA970002900D10BE14B1E0B4200D009E14223EB5C1B024122AA5C134398462B8143461B0700D0FFE04423E85C0302432292
:400CC000A85C18430DD15323E85C0006013BEB5C1B0418435123EB5C1B0203430D32A85C18433F23EE5C33023E22AE5C1E4300D1E4E05B46F318424612099946914448456D
:400D000000D2DDE04B46C01A02F0B6F8002800D1D8E0704B984202D801239A4601E002239A466D4B984201D903239A460230A8614B46E318AB62A6192E625346032B14D1CE
:400D40004346002B00D0BFE05F33EA5C1206013BEB5C1B041A435D23EB5C1B0213435C22AA5C13436B62800010E04346002B00D1ACE05E446E625346022B01D1400005E0D0
:400D8000032343435B08012210401818534B9C466044400A874200D2BEE001235B422B610023EB605346032B5ED100236B716133EA5C1202013BEB5C1A4312196A61291C21
:400DC00030316878012301F06FFC00284CD1444BEB5C1A02434BEB5C13431BB2424A934242D13323EA5C1206013BEB5C1B041A433123EB5C1B0213433022AA5C13433B4A9B
:400E0000934231D13A4BEA5C12063A4BEB5C1B041A43394BEB5C1B02134385229200AA5C1343364A93421FD1354BEA5C1206354BEB5C1B041A43344BEB5C1B021343872295
:400E40009200AA5C1343EB60304BEA5C1206304BEB5C1B041A432F4BEB5C1B02134386229200AA5C13432B6153462B70184A138D01339BB21385EB800024EC622C71281CBF
:400E8000FFF7DEFC201C48E00B2046E00C2044E0002042E00A2040E003203EE00A203CE001203AE00D2038E00D2036E00D2034E00D2032E00D2030E00D202EE00D202CE056
:400EC0000D202AE00D2028E00D2026E00D2024E000010020F50F0000F5FF0000FF0100002F0200002E02000055AAFFFF525261411702000016020000150200007272416197
:400F00001F0200001E0200001D0200001B0200001A020000190200000D203CBC90469946A246AB46F8BDC046F8B5051C0021FFF771FD041E52D12B78032B47D16B79002BFF
:400F400044D00027EF622E1C3036301C002180229200FFF76DFB5522214BEA545532214BEA54DE3BFF3B7A3AAB540132AB540F330132AB540F3233216A543F318520800050
:400F800029541948295419496A54194AAB542B690132AB54190A174AA954190C164AA9541B0E164AAB54EB680132AB54190A144AA954190C134AA9541B0E134AAB5468781C
:400FC000311C6A69012301F0A5FB6F7168780021002201F0E9FB002800D00124201CF8BD2E0200002F020000150200001602000017020000190200001A0200001B02000039
:401000001D0200001E0200001F02000002398369023B8B4204D983785943806A081800E000207047F8B5012966D983698B4265D90C1C061C0378022B2AD0032B3ED0012B89
:401040005ED14F08CF19790A036A9C466144FFF7E1FC002857D1FB05DB0DF31830331D780137790A336A9C466144301CFFF7D2FC00284BD1FF05FF0DF01930300078000257
:401080002843E30701D5000948E00005000D45E0090A036A9C466144FFF7BCFC002838D16100FF235B0019400B1C3033F3185878000276183036337818432FE0C909036AD1
:4010C0009C466144FFF7A6FC002825D1A100FE24640021400A1C3032B218D078000693781B04184353781B021843711830310B7818430001000911E001200FE001200DE0E2
:40110000012040420AE00120404207E00120404204E00120404201E001204042F8BDC04670B5051C0C1CE9808168012938D003689A698A4236D9002903D11A78032A00D167
:40114000596A002908D1E9601A89A2422CD95A6A2309D3182B6119E09E7836010DE02868FFF760FF011C431C20D0012820D92B689B6983421ED9A41BA4B2B442EFD2E96060
:401180002868FFF743FF2309C01828610F2323405B0130332A68944663446B6100200AE0022008E0022006E0022004E0012002E0022000E0022070BDF8B5061C0C1C151C09
:4011C00001297CD983698B427BD90378022B40D0032B53D0012B6ED14F08CF19790A036A9C466144FFF716FC002865D1FB05DB0D012214400AD0F21830321278FF2129401B
:4012000009010F3002400A43D2B200E0EAB2F31830331A70013701233371790A336A9C466144301CFFF7F6FB002845D1FF05FF0D002C02D02D09EDB207E0F31930331B78FA
:401240000F2293432D052D0F1D43F71930373D7032E0090A036A9C466144FFF7DBFB00282AD16400FF235B001C40231C3033F3183419303425702D0A5D701DE0C909036AFD
:401280009C466144FFF7C6FB002815D1A400FE235B001C40231C3033F318DA783419303412091207154325702A0A5A702A0C9A702D0EDD7000E002200123337102E0022001
:4012C00000E00220F8BDC046F8B5051C0F1E06D1C668002E0CD08369B3420BD90BE0FFF7A1FE01283DD9AB6983423FD83E1C02E0012600E00126341C0134AB69A34202D8F1
:40130000012E30D90224281C211CFFF78BFE002806D0431C2AD0012828D0B442ECD124E0281C211C124AFFF747FF002806D1002F04D0281C391C221CFFF73EFF002808D1FA
:40134000EC602B695A1C0AD0013B2B6101236B7105E0012802D10124644200E00124201C04E0012002E0002000E00020F8BDC046FFFFFF0FF0B5474680B4C4880134A4B27D
:40138000002C69D00369002B68D00E1C051C0F27274058D101330361C168002904D103681B89A3425CD94EE0230900688278013A1A4248D1FFF736FE8046031E012B51D92D
:4013C000013351D028688369434535D8002E4DD0E968FFF779FF8046031E49D0012849D0013349D028680021FFF714FB002845D128683030002180229200FFF719F92E6817
:40140000301C4146FFF702FEF06200260DE001221A7128680021FFF7FDFA002830D12A68D36A0133D3620136F6B22B689A78B242EDD8DA6A961BDE624346EB602868414674
:40144000FFF7E4FD2861EC807F0130372B689C4667446F61002014E0042012E0042010E004200EE002200CE001200AE0042008E0072006E0022004E0012002E0012000E03D
:40148000012004BC9046F0BD38B5051C0021FFF747FE00281BD128682969FFF7BBFA041E14D168690378002B0FD0C37A1B0705D4A9690B22FFF7C4F8002807D0281C002193
:4014C000FFF758FF041EE6D000E00424201C38BD10B582B0041C01910B782F2B01D05C2B01D1013101910023A360019B1B781F2B06D8201C0021FFF713FE0023636127E04B
:40150000201C01A9FFF7B2F9002821D1201CFFF7BBFFA369DB7A002804D0042818D15B0713D515E05B0713D46369DA7AD2060ED5597D09021A7D11430904D87E00029A7E00
:40154000031C13430B43A360DAE7052000E0052002B010BD70B5051C0021FFF7E1FD041E11D128682969FFF755FA041E0BD16B691B78E52B07D0002B05D0281C0121FFF7ED
:40158000F9FE041EEDD0002C13D128682969FFF741FA041E0DD16E69301C00212022FFF747F8301CA9690B22FFF738F82B6801221A71201C70BDC04610B5041C042015E0D8
:4015C0002068FFF727FA002815D162691378002B10D0E52B04D02E2B02D0D37A1B070AD5201C0021FFF7C6FE002804D121690029E6D100E00420002801D00023236110BD91
:40160000F8B5041C0D1E012D21D983698B4220D9002718E0201C291CFFF704FD061E1DD0012818D0431C18D0201C291C0022FFF7C3FD071E12D123695A1C03D001332361EA
:4016400001236371351CA369AB42E3D806E0022704E0022702E0022700E00127381CF8BD70B5002816D10D1C041C83000A4AD3185E6A002E04D0301CFFF7E2F8002333704A
:40168000002D01D000232B70A000034C20184562002000E00B2070BD00010020F0B54F464646C0B48DB0061C01919046002303601F27131C17401E221A4001A805A9FFF7ED
:4016C00051FA041C02AB0B93002804D105A80199FFF7FEFE041C0A9D002C0CD1002D09D00123391C99434B1E994105A8FEF7C4FF041C00E006241C234246134253D0002C96
:401700000FD0042C09D1FEF7FDFF002804D005A8FFF720FF041C00E0122408231F430A9D0AE0EB7A11221A4203D143465B0702D402E0072400E00824002C42D13B0740D585
:4017400001F09AF8A873030AEB73030C2B74000E68740023EB722B776B77AB77EB776A7D1202297D0A431204E97E0902A87E01430A439046AB76EB762B756B75059801336A
:401780000371002A1DD0C36A9946111CFFF738FF041E16D105984346013BC3604946FFF739F9041C0DE0002C0BD1EB7ADA0605D44246920705D5DB0702D402E0042400E023
:4017C0000724002C13D13B0701D520231F43059BDB6AF36135620123391C99434B1E994105A8FEF7A3FF7062002800D10224002C1DD1B7716B7D1B022A7D13431904EB7E8A
:401800001B02AA7E13430B433361EB7F1A06AB7F1B0413436A7F120213432A7F1343F3600023B360B361059B3360DB88B380201C0DB00CBC90469946F0BDC046F8B55F46CF
:4018400056464D464446F0B4041C8846151C1F1C00233B6081880068FFF76CF9002800D0A6E0A3795AB2002A00DA9EE0DB0700D49DE0E368A2689E1AB54200D990E02E1C35
:401880008EE0A268D30562D1550A20688378013BDBB21D4019D1002A01D1206902E06169FFF7C0FB012806D8A379802252421343A37102207CE0431C06D1A3798022524208
:4018C0001343A371023073E0606123689A46181C6169FFF79BFB002806D1A379802252421343A371023063E08146A944730A9B462BD0EB1852469278934201D9531B9B4663
:4019000053465878FF235A46134041464A4600F0CBFE002806D0A379802252421343A371012045E021680B79002B0BD0CB6A4A46981A584506D240023031404480229200FF
:40194000FEF76CFE5B465D0222E04B46A361A368DD05ED0D80239B005D1BB54200D9351C2068A169FFF756F8002806D0A379802252421343A37101201AE0A368D905C90D49
:40198000303123689C46614440462A1CFEF746FEA844A3685B19A3603B685B193B60761B002E00D06DE7002002E0022000E007203CBC90469946A246AB46F8BDF8B55F46F4
:4019C00056464D464446F0B4041C8846161C1F1C00233B6081880068FFF7ACF8002800D0E2E0A3795AB2002A00DADAE09B0700D4D9E0E3689A19934200D8C4E00026C2E080
:401A0000A268D30500D092E0550A20688378013BDBB21D4024D1002A08D12369002B09D10021FFF751FC031C206103E06169FFF74BFC031C002B00D1A8E0012B06D1A37941
:401A4000802252421343A3710220ADE05A1C06D1A379802252421343A3710120A4E063612068C36AA26993420BD10021FEF7D2FF002806D0A379802252421343A371012072
:401A800092E023689A46181C6169FFF7BFFA002806D1A379802252421343A371023083E08146A944730A9B462BD0EB1852469278934201D9531B9B4653465878FF235A4671
:401AC000134041464A4600F025FE002806D0A379802252421343A371012065E02068C36A4A46991A594509D230304902414480229200FEF793FD0023226813715B465D02BE
:401B000039E0A368E26893420FD350460021FEF781FF002806D0A379802252421343A371012041E023684A46DA624B46A361A368DD05ED0D80239B005D1BB54200D9351CAE
:401B40002068A169FEF766FF002806D0A379802252421343A371012026E0A368D805C00D303023689C46604441462A1CFEF756FD012322681371A844A3685B19A3603B681A
:401B80005B193B60761B002E00D039E7A368E268934200D9E360A27920231343A371002002E0022000E007203CBC90469946A246AB46F8BD38B5041C81880068FEF7BAFFC7
:401BC000002833D1A3799B0630D52068E169FEF721FF00282AD1256AEA7A20231343EB72237B2B77A3891B0A6B77A37BAB77E37BEB77237CAB76238A1B0AEB76A37C2B75DF
:401C0000638A1B0A6B7500F037FEA875030AEB75030C2B76000E6876A37920229343A3710123226813712068FFF77EF938BDC04610B5041CFFF7BEFF002802D1606AFEF7AB
:401C4000D9FD002801D10023236010BDF0B557464E464546E0B4041C0E1C81880068FEF769FF051E00D0A0E0A3795AB2002A00DA9CE0E268B24202D29B0700D4161CA36834
:401C800098460023A360002E7BD0236899469F787F024346002B15D0701E391C01F0ECF8824601235B429C46E0444046391C01F0E3F8824506D37B4242461340A360F61AD3
:401CC00061691AE02169002916D14846FFF7FCFA011E012906D1A379802252421343A371022064E0431C06D1A379802252421343A37101205BE020616161002929D10026F0
:401D000042E0A3799B0705D52068FFF7DDFA011E04D121E02068FFF785F9011C4B1C06D1A379802252421343A37101203FE0012903D923689B698B4206D8A37980225242BA
:401D40001343A371022032E06161A368DB19A360F61BBE42D5D800E03E1CA3689B19A360F30510D02068FFF751F9002806D1A379802252421343A371023018E0760A3618F4
:401D800002E0002600E00026A368DA0503D0A269B24200D0A661E268934204D9E360A27920231343A371281C01E000E002201CBC90469946A246F0BD30B587B0041C019164
:401DC00001A8211C0022FEF7CDFE002827D103ABA361201C0199FFF77BFB00281CD16369002B10D0DA7AD2060CD5597D09021A7D11430904DD7E2D029A7E2B1C13430B43A8
:401E0000A36000E00520002806D12368DB88A380201C0021FFF784F9042800D1013007B030BDC046F0B585B0041C0E1C81880068FEF780FE051E22D1002E04D1201C002164
:401E4000FFF76EF91BE001ABA361201CFFF7B4FB071E042F02D1002323612F1C002F0DD1201C311CFEF798FD201C0021FFF782FA042804D100232361381C00E0381C05B088
:401E8000F0BDC04670B5051C81880068FEF752FE041E09D1AB795AB2002A02DB9B0702D502E0022400E00724002C35D1AB68EA689A422AD9EB60A97920220A43AA71002BFC
:401EC00007D128682969FFF79BFB041C00232B611BE028686969FFF7A5F8061C431C00D10124012E00D10224002C0ED128688369B3420AD96969094AFFF75EF9041E04D138
:401F00002868311CFFF77CFB041C002C04D0AB79802252421343AB71201C70BDFFFFFF0F08B500F0D3FE08BD08B500F0EDFE00F0F9FE0028FBD100F0DFFE0028FBD000F090
:401F4000D5FEC0B208BDC04608B5FF20FFF7ECFF08BDC046F0B5474680B48EB0061C0F1C904601A81A49FFF727FF002801D0FEF783FA0024002501A808A9FFF753FF00285C
:401F80001BD108AB5B7A002B17D02E2BF3D0BD4211DB4346FB18AB420DDD4346002B0ADD29236B44621C04341978315519780133141C0029F6D10135DDE734702412747021
:401FC000B5702D12F5700EB004BC9046F0BDC046C83B000010B5002304E020210B4AD1540133DBB2052BF8D9084B0022DA710A329A71053A07E0511E072303403033034C0A
:40200000A354C008CAB20028F5D110BD64080020F0B54F4680B484B0041CBD4BC35C002B02D1FEF77DFAADE1052B04D1FA20800000F070FDA6E1042B5BD18378002B09D15F
:40204000A0E1802292009A18B249C95CA15401339BB200E000230A2BF3D9AF4D281CAF490322FFF71BFB281CE968FFF7EFFD80239B00E118281C0A2203ABFFF79FFC002871
:4020800001D002232370A64B1868421C1A6080B2FFF7A0FFA048A349072203ABFFF78EFC002801D002232370002516E02B1D5B00E25C6B000933E05C0002101880B2FFF77A
:4020C00089FF95489749072203ABFFF777FC002801D0022323700135ADB2A378AB42E5D88D48FFF7A5FD002800D14BE10223237048E1062B02D1FEF7D5F943E1072B02D1ED
:40210000FEF718FA3EE1082B0BD1007861780902A378E278120241189A18201CFFF71AFF30E1032B05D8C3787F2018407E49FEF787F8A378012B08D0022B0BD0032B0ED073
:402140005023994601260A270EE05023994600260A2709E05023994601260A2704E080235B0099460126FF27704B1B8801973A1C5A4349465143002E00D049006A48C5684B
:40218000002D14D08D4212D0002E09D05900019B5943281C00F070FE83B29946291C06E0281C111C00F068FE83B29946291C002D02D15D48FFF74AFD554BE35C022B16D8E8
:4021C000A278032A0DD822794A450AD26279002A07D0974205D3002E20D10322A256002A1CDA012323705048FFF722FDCAE0032B14D1A278032A0BD822794A4508D262799A
:40220000002A05D0002E09D10322A256002A05DA012323704448FFF70BFDB3E000222270012B31D1414B1A882179019B5943013671436379013BC91851430323E356002BB9
:4022400002DA019F5743C919374D281CFFF7FEFC211C0831354B1A88281C03ABFFF7EEFA002802D00530207006E0304B1B88039A934201D902232370039BA3711B0AE37154
:402280002948FFF7D5FC7DE0022B2BD1274B1A882179019B594301364E436379013BF11851430323E356002B02DA019F5743C9191D4D281CFFF7CAFC211C08311B4E328878
:4022C000281C03ABFFF77AFB3388039A934201D902232370039BA3711B0AE3711248FFF7A7FC4FE0032B4BD1104B1B882179019A51430136714359430322A256002A02DABA
:40230000019A5343C9180848FFF7A0FC002319E0FE030000D03B0000140800202C3B00002C010020640800203C080020CC0000201A1D5200A179A1545A000932E179A15439
:4023400001339BB2114A128852089A42F0D800250BE0211C08310D4B1A880D4803ABFFF72DFB002804D10135ADB2BEB2AE42F0D8AE4201D9022323700548FFF759FC01E093
:402380000423237004B004BC9146F0BDCC0000203C08002038B5051C0C1CFFF7D5FD2870013C0135002CF8D138BDC04630B583B00A4C0CE06B46DD1D281C0121FFF7EAFFD8
:4023C0002B78FF2B05D0642000F0A4FB013C002CF0D1601E8441E0B203B030BD88130000F0B583B0071C0E1CFA25AD000BE001AC201C0121FFF7CEFF2378FF2B05D1642025
:4024000000F088FB013D002DF1D101AB1B78FE2B09D1381C311CFFF7BDFF01A80221FFF7B9FF012000E0002003B0F0BD00B583B0012000F0DBFC6B46D81D0121FFF7AAFF35
:4024400003B000BD10B582B0002000F0CFFC6B46D81D0121FFF79EFFFFF7A8FF041E02D1FFF7E4FF00E00124201C02B010BDC04638B50C1C451C0078FFF756FD013C281CD6
:40248000002CF7D138BDC04630B583B0041C0D1C43B2002B07DA7F231C4037200021FFF7F3FF012838D80C2C05D0FFF7BFFFFFF7C9FF00282FD0402323436A4613702B0E59
:4024C00053702B0C93702B0AD3701571002C01D0012300E09523082C00D187236A46537168460621FFF7C4FF0C2C04D16B46D81D0121FFF74FFF0A246B46DD1D281C01211F
:40250000FFF748FF287843B2002B05DA013CE4B2002CF1D100E0FF2003B030BD30B583B0051C0C1CFFF742FF00281ED001A804700121FFF79DFFFD2C14D0281C8021890065
:40254000FFF796FF01AC201C0221FFF723FF201C0121FFF71FFF23781F221340052B03D0002002E0012000E0012003B030BDC046002802D1024B187800E001207047C046A8
:40258000CE00002070B584B0002800D084E0FFF7C7FC142403E0FFF7D7FC013CE4B2002CF9D100200021FFF76FFF01285ED10730D5214900FFF768FF012832D101AC201C2D
:4025C0000421FFF7E7FEA378012B51D101ABDB78AA2B0ED0002454E0A9208021C905FFF753FF002809D0FA20800000F093FA013C01E0FA24A400002CEED1002C3AD03A2075
:402600000021FFF741FF002836D101AC201C0421FFF7C0FE23785B0601D50C2431E004242FE0A9200021FFF72FFF012802D8A926022401E001260124FA25AD000AE0301CD3
:402640000021FFF721FF002806D0FA20800000F061FA013D002DF2D1002D0FD0102080218900FFF711FF00280AD10AE0002408E0002406E0002404E0002402E0002400E091
:402680000024074B1C7060426041C4B2054B1C70FFF7CCFE201C00E0032004B070BDC04630010020CE000020F8B50D1C171C1C1CFFF75EFFC30729D4154B1B781B0700D41A
:4026C0007F02012C01D9122600E01126301C391CFFF7DAFE002813D1281C80218900FFF77FFE002806D080239B009C466544013C002CF1D1122E03D10C200021FFF7C4FE9C
:40270000FFF794FE601E8441E0B200E00320F8BD3001002070B50D1C161C1C1CFFF728FFC3073DD41F4B1B781A0700D47602012C0CD11820311CFFF7A7FE00282AD1281C88
:40274000FE21FFF7EBFE002821D123E006221A4203D09720211CFFF797FE1920311CFFF793FE002816D1281CFC21FFF7D7FE002806D080239B009C466544013C002CF2D12D
:402780000020FD21FFF7CAFE002802D002E0002400E00124FFF74AFE601E8441E0B200E0032070BD3001002030B585B00C1C151CFFF7DEFEC3075BD4012C0AD0002C02D041
:4027C000032C46D049E0FFF73DFE002847D101244AE009200021FFF757FE002841D168461021FFF7FDFD00283DD06B461B789B09012B0FD16B46597A1B7A1B02C9186B461C
:40280000DA793F2313401B04CB1801339B022B60002429E06B465A79997AC8095B7A0F2111404118032213405B00CB180233DBB26946087A8409C8798100601869468979CD
:402840000A40920282180132093B9A402A6000240AE080232B60002406E0042404E0002402E0012400E00124FFF7E0FD201C00E0032005B030BDC0460048704721038F40D7
:40288000FEE7C04670B50F4E0F4D13E029686B68AC68002202E001C901C30432A242FAD1E868002202E0002102C304328242FAD11035013E002EE9D100F070FBFDF70AFDAC
:4028C000FEE7C04601000000983E000008B500230AE0032B03D89A000A49505800E00A4899000A4A885001332F2BF2D9FDF7C0FB0022074B1A608022D205116801230B435D
:40290000136008BD000000008128000000000020C0000020F0B50025002711E0BB00C658F3B2FF22964308E06A008A181478A419527822700135013BDBB2002BF4D101379C
:40294000082FEBD9F0BDC04608B50A1C002100F04BFB08BD014B1A681860704700020440184B1A6807218A4302431A601A6831318A43C1000A431A601968134A0A408101EB
:402980000A431A601968114A0A4041020A431A6019680F4A0A4001030A431A6019680D4A0A40C1030A431A6019680B4A0A4081040A431A601968094A0A40400510431860EA
:4029C0007047C046080204403FFEFFFFFFF1FFFFFF8FFFFFFF7FFCFFFFFFE3FFFFFF1FFF014B1868C0B2704704020440014B1A681860704700000440184B1A6807218A4348
:402A000002431A601A6831318A43C1000A431A601968134A0A4081010A431A601968114A0A4041020A431A6019680F4A0A4001030A431A6019680D4A0A40C1030A431A6061
:402A400019680B4A0A4081040A431A601968094A0A404005104318607047C046080004403FFEFFFFFFF1FFFFFF8FFFFFFF7FFCFFFFFFE3FFFFFF1FFF014B1868C0B2704794
:402A80000400044004490A68DF231A404001BF3B184010430860704700030440014B1878C0B2704761000F40014B1878C0B2704762000F40000000000230800804D0C04668
:402AC0000138FDD1C046C046C0467047EFF3108072B6704780F310887047C046C046C04601BE704710B5041C06E0084B1868FFF7E3FF074B9C46644480231B029C42F4D8AF
:402B0000024B58686043FFF7D7FF10BDD00000200080FFFF08B5034B1B7A5843FFF7CCFF08BDC046D0000020F0B557464E46C0B483B0041CC71E2D2F7AD8414B1B78DBB24B
:402B4000834208D33F4B1B78DBB29A463E4B1B78DBB2994631E03D4B1B78DBB2834208D33B4B1B78DBB29A463A4B1B78DBB2994623E0394B1B78DBB2834208D3374B1B78E4
:402B8000DBB29A46364B1B78DBB2994615E0354B1B78DBB2834208D3334B1B78DBB29A46324B1B78DBB2994607E0314B1B78DBB29A46304B1B78DBB299462F4BDE5DFFF771
:402BC00085FF01902F2E09D92A2C07D919222B4B1A600520FFF770FF192503E0274B1D683F231D40AE4206D2234BDA5D234B1A600520FFF761FF1F4B9C4664442378DBB2D3
:402C00001F4A13601F4B52461A601F4B4A461A600520FFF77FFFAE4206D9174BDA5D174B1A600520FFF748FF0198FFF753FF02E00020FFF755FF03B00CBC91469A46F0BD7D
:402C4000C0F1FF0FC1F1FF0FC2F1FF0FC3F1FF0FC4F1FF0FC5F1FF0FC6F1FF0FC7F1FF0FC8F1FF0FC9F1FF0FCAF1FF0FCBF1FF0FCCF1FF0FCDF1FF0F443E00002CFF0B408F
:402C800028FF0B401CFF0B4020FF0B40014B1878C0B2704763000F4004490A68FB231A408000F73B18401043086070470001044008B500F04FF808BD034A136880210906F2
:402CC0000B4313607047C0460000064008B5064B1B78002B04D1FFF7EBFF0122024B1A70FFF7EAFF08BDC04634010020014B18687047C04640030640024B1B680F2018402D
:402D00007047C04608030640044B1B680F221340082BF9D0024B18607047C0460802064040020640024B1B680F2018407047C0460802064005490A68054B13408006C022AA
:402D400012051040184308607047C04620000640FFFFFFF308B5104A104B1A60104A114B1A60114B114A13600721114A1160114A13600023104A1360104A1360104A136084
:402D8000104A1360104A1360104A1360104A13600020FFF7CFFF08BD0F0000010000064001000080200006400701008000030640040306400002064004020640880E06406B
:402DC000C80E0640480F0640080F0640C80F0640880F064004490A68F7231A40C000EF3B18401043086070470001044004490A68EF231A400001DF3B184010430860704787
:402E000000010440024B18688006C00F7047C04604010440014B58647047C0460000002010B5041CFFF752FE044A1168044B0B40A4031C431460FFF74DFE10BD00E400E068
:402E4000FF3FFFFF0222014B1A60704700E100E00222014B1A60704780E100E010B5041CFFF7F6FF201CFFF7D5FF0320FFF7D8FFFFF7E8FF10BDC046002243088B4274D3DB
:402E800003098B425FD3030A8B4244D3030B8B4228D3030C8B420DD3FF22090212BA030C8B4202D31212090265D0030B8B4219D300E0090AC30B8B4201D3CB03C01A524113
:402EC000830B8B4201D38B03C01A5241430B8B4201D34B03C01A5241030B8B4201D30B03C01A5241C30A8B4201D3CB02C01A5241830A8B4201D38B02C01A5241430A8B42EA
:402F000001D34B02C01A5241030A8B4201D30B02C01A5241CDD2C3098B4201D3CB01C01A524183098B4201D38B01C01A524143098B4201D34B01C01A524103098B4201D31D
:402F40000B01C01A5241C3088B4201D3CB00C01A524183088B4201D38B00C01A524143088B4201D34B00C01A5241411A00D20146524110467047FFE701B5002000F00CF8A8
:402F800002BDC0460029F7D003B5FFF775FF0EBC4243891A1847C0467047C0460E4B70B500251E1C0D4CE41AA410A54204D0AB00F35898470135F8E700F05CFF084B0025D6
:402FC0001E1C084CE41AA410A54204D0AB00F35898470135F8E770BD803E0000803E0000803E0000883E0000031C8218934202D019700133FAE7704700000000A000060163
:40300000000000000000000000000000C6154A01C115CC00DF099000DF174A02FA00DF096600DF8BF8000503C115DE00DF09900000005F0000106610C11574FFC9B5800004
:40304000FD03810A810A0990811587006610C115BCFDC9B58000FD03810A810A099081158700C315F800000AC090DF095000C300C090DF095000C015FF00DF095000DF0914
:403080005000DF358000BCFDFC038700000A4094DF093A00C00BFB028700C015CA004210810C810C810CC245F8FFC2653000A090C025C400F402C115C400DF099000870049
:4030C0000000000000000000424F4F543020FAC1C7D2D5D6C5CE0A0D0000424F4F543120EFDBC9C2CBC120DAC1C7D2D5DACBC9200A0D000000081100000200107C040000C4
:40310000000000000000000000000000000000000000000000000000000000000000000000000000000000000000000000000000000000000000000000000000000000008F
:40314000000000000000000000000000000000000000000000000000000000000000000000000000000000000000000000000000000000000000000000000000000000004F
:40318000000000000000000000000000000000000000000000000000000000000000000000000000000000000000000000000000000000000000000000000000000000000F
:4031C000000000000000000000000000000000000000000000000000000000000000000000000000000000000000000000000000000000000000000000000000A000C11559
:403200009E12DF099000C115F800D115000177127403D1151A00D1150000D115FFFFDF096600C115F800D1150002DF17FE004C01DF096600DFE5BF024C01C115F800D115CE
:403240000001D1151A00110AD1174C01DF096600DF17FC004E01DF17FE004C01C115F800D1150001D1151A00110AD115BA02DF096600DF8BF8000403C115FC12DF099000A8
:40328000DF17FC005001DF17FE005201DF174E01FC00DF174C01FE00DF150002F800DF096600DF175001FC00DF175201FE00C115B012DF099000C117FC00DF099E00C115FC
:4032C000C812DF099000DF158413FE00DF15BA020001DF150010F800DF096600DF8BF8000403C1151A13DF099000C115CC12DF099000DF150018F800DF096600DF8BF80034
:403300000403C1154013DF099000C115EA12DF099000C115C400DF099000C115C812DF099000C1152800C0150010017E447EC115F800D1150008D11D4C02D115001CD1155D
:403340000020D115FF00DF096600C1150020C90B140344144210C1158E12DF099000C3150A00C5150D008094DF093A0003A003024011DF093A00097F0401C1156A12DF09A0
:403380009000A000C6156812C1152C12D1150008D1150200D1150001D1150000D1150001C0150020017EF7091A00C0150000DF25A000000002025F000000C1155813F7093F
:4033C00058000000C3152C12000AC090F7091E00C300C090F7091600C015FF00F7090E00F7090A00DF358000BCFDFC0387006610C115BCFDC9B58000FD03810A810A09904D
:40340000811587006610C11574FFC9B58000FD03810A810A099081158700000A4094F709E2FFC00BFB028700000000000000000000000000000000000000000000000000D8
:403440000000000000000000000000000000000000000000000000000000000000000000000000000000EFDBC9C2CBC120DED4C5CEC9D1206D61702E74787420D3205344D6
:403480002DCBC1D2D4D90A0D000073642F6D61702E747874203A0A0D0000424F4F543120FAD5C7D2D5D6C5CE0A0D0000F0C1CDD1D4D820F0F020D7D9C4C5CCC5CEC1202084
:4034C000402000000A0D0000424F4F543220FAC1C7D2D5D6C5CE20D720D0C1CDD1D4D820F0F00A0D0000424F4F543220FAC1D0D5DDC5CE2040200000EFDBC9C2CBC120D786
:40350000D9C4C5CCC5CEC9D120D0C1CDD1D4C920F0F00A0D0000EFDBC9C2CBC120DAC1C7D2D5DACBC920424F4F543220D720D0C1CDD1D4D820F0F0200A0D0000EFDBC9C2B1
:40354000CBC120DAC1D0D5D3CBC120424F4F54320A0D0000EFDBC9C2CBC12E20EEC5CBCFD2D2C5CBD4CED9CA20DAC1C7D2D5DACFDECED9CA20D3C5CBD4CFD22E0A0D000010
:40358000A00077004E050000000000000000F717C8FFF8FFF717CEFFF0FFDF451000C8FFDF450800CEFFDF550400CEFFDF350100CEFFFC022610C08DC05580008015F71777
:4035C0002CFEC4FFC41DBEFFC400C48B0303C4150A000201C41502001F112CFE8700DF1DA6FF2CFEDF1DA2FFCEFFDF1D9EFFC8FF2610C08DC045800080158700C111C165D4
:4036000058005F10460E8700F70982FFDF150500FE9FF709C8FFF70974FFF709C0FF87006610F70968FFC115089CC51506005F11029C1F1008FED1170CFE800A467FDF15A2
:403640000400FE9FF70996FFF70942FFF7098EFF81158700A000A000A000F7099EFFC0178026A100000C0110800A1F1008FEC0170CFE020A0290C20B03039720030004831F
:40368000DF0918AA5F0074F84010F7097AFF5F1008FEC0170CFEC00017A003001E8317A008001D0317A010001D0317A018001D0317A041001D0317A042001D0317A043007B
:4036C0001D03C01509005F1008FE1F900CFEDF0A320EDF0B34FE5F0074F8000AF401F7092000F101F7093800EE01F7095000EB01F709AC02E801F7090C03E501F709540337
:40370000E2016610F7097200F709B400F70B66000302F70B5E00F8028115C01D580087006610F7095400F709D600F70B48000302F70B4000F8028115C01D3A00870066101C
:40374000F7093600F70946FE8013C06503001F1008FEDF170CFE069CDF150300FE9FF7097CFEF70928FEC017009CF70970FE811587000000000000000000F70910FE370ABC
:40378000F6FF4210820AC415009C140A9F1008FED4170CFE820A9F1008FED4170CFE820A9F1008FEF7170CFEC8FF820A9F1008FEF7170CFEBEFF370ABCFFF70920FE8700EC
:4037C000F70BB4FF0303C01553001301F709BEFDDF150100FE9FF70904FEF709B0FDC017009C0702C017069CA100000CF70962000201371080FFF7093601F709E0FD87006E
:40380000F70B74FF0303C01553001C01F7097EFDF7096E00DF150200FE9FF709C0FDF7096CFDC017009C0E02C017069C376042FFA100000C37E03CFFF70B38FF0580370A54
:4038400032FF020137102EFFF709E400F7098EFD8700C11D1EFF012001054010C11D12FFA100010C37E00CFFC215089C5F1008FE9F140CFE810A067EA100410C7710F2FE58
:403880008700C11DEEFEC0150001012001054010C11DDEFEA100010CC215089C5F1008FED2170CFE810A067E87004F0000000A0000004F0001000A000000FF0001000001D5
:4038C0000000C017049CC000C04500FF87002610C017049CC04500FFC0008055C0001F10049C8700C017049CC04500FF87002610C017049CC045FF0080551F10049C8700CC
:40390000C017029CC03500800202000A8700C01501008700C00B0503C017029CC05500800401C017029CC04500801F10029C8700C017029CC04500FFC00AA100C00CC00CFF
:40394000C00CC06562FFC061011402140314F70970FF800A03200306F70972FF2001C0150100F70968FFF70996FFC00B0602800A02200306F7099CFF1201C0150100F709FD
:403980004CFFC0150000F7098AFFF70956FF800A01200306F70956FF0201B70ADAFD87004010800A800A1F1008FEC0170CFEA100000C6610A610C115029CF709D0FBDF1558
:4039C0000600FE9FF70916FCF709C2FBC217009CC23501000103820AA100020C1F1008FE5F140CFE800A867EF709F2FB821581154010800A800A800A1F1008FEDF17009C9A
:403A00000CFE000A87006610A6104010800A800A1F1008FEC2170CFEA100020C800A1F1008FEC0170CFEC115009C0310A100430CF7095AFBD1109F1008FED1170CFE820A16
:403A4000067EDF150700FE9FF70992FB82158115000A87006610810A810A5F1008FEC0170CFE810A5F1008FEC2170CFEA100020C810A5F1008FEC3170CFEC515009CF70911
:403A80000CFB1510D510DF150800FE9FF7094EFBF709FAFA8113C415009C0015C03501000102800AA100000CC16504005F1008FE1F150CFE810A5F1008FE1F100CFE9F100C
:403AC00008FE1F150CFE820A067EF70910FB8115000A8700A000F70922FBF709B0FADF150000FE9FF709F6FAF709A2FAF709EEFA87000000000000002F6469736B732F666B
:403B0000696C656E616D6566696C656E616D6566696C656E616D655F5F5F5F2E657874002F6D61702E747874000000002F6C6F672E74787400000000808182828485868718
:403B400088898A8B8C8D8E8F809192939495969798998A9B8C8D8E8FA0A2A2A3A4A5A6A7A8A9AAABACADAEAFB0B1B2B2A5B5B6B7A8B9AABBA3BDBDAFC0C1C2C3C4C5C6C71E
:403B8000C8C9CACBCCCDCECFD0D1D2D3D4D5D6D7D8D9DADBDCDDDEDFC0C1C2C3C4C5C6C7C8C9CACBCCCDCECFD0D1D2D3D4D5D6D7D8D9DADBDCDDDEDF222A2B2C3A3B3C3DB0
:403BC0003E3F5B5D7C7F00002F6469736B7300004C6F6720656E7472793A000000300F40000400400F40000438300F403E310F4022320F4047330F400C400F400E410F406A
:403C00000F420F4012430F4002600F400201030F0502060107010801090F0D040E010F01110F1201140115081701190F1A011C011D0F2201230F2601270F28012B0F2C01C8
:403C40002D0F32013501370E380839A03E043F50580459045F018D0498019902A802A901AC04AD08B002B102B204B308B401B504B701D80BD90BDB04DC99DF010285032038
:403C8000081009020A120E041044120A13041510178019041EA01F202250249825022689284029112B212D802F0430A0312032053302372038983A013B043D40452046042A
:403CC000581059105A085B085EA25F086405650267107A027B017F80810283A084018510871688058C88C00FC24FC4CFCA3FCC2FCE1FD6F0D8F0DE800108020105040A011B
:403D00000C08140219021D012004260128012C01300231013204330434083508360137023E40580B590B5B045C995F01A001A402B001B402D80BDB04DC09DF01044005113D
:403D400006400C08110212101511178819201B021E641F80252826012702348037103C0A45284628580159045AA05B025D205E466401662A7B807F80820183088612882054
:403D800089108A408B818C808D109040910192A0988099049A109B109D119E01A00DA101A4A0A783A941AB20AD80AE04AF04B101B294B440B610B710C0D0C220C4FCCC3055
:403DC000CEC0D6FED8F0DE81EC10011003800724080809800F1483208780C0F0C2F0E080E4100310068083109E80A808A980AB04AD10AF14B680C030E020E8D0ECB0000196
:403E0000014004100680084009040E010F4088408B408C11C00FC20FE20DE6080002062009020A010F08880189028A018E208F04B281B544C00CC20BE203E607EA02EE079A
:403E400002011101030405060708090A0B0C0E0F101112131415161718191B1C1D1E1F2021222325262728292A2B2E2F3031323334350000F8B5C046F8BC08BC9E46704777
:403E8000FD010000CD280000F8B5C046F8BC08BC9E467047D5010000A83E0000C8000020180000009007000000000000000201000000C05D80BB000030000000006CDC0221
:403EC00000000000000000000000000000000000000000000000000000000000000000000000000000000000000000000000000000000000000000000000000000000000C2
:403F00000000000000000000000000000000000000000000000000000000000000000000000000000000000000000000000000000000000000000000000000000000000081
:403F40000000000000000000000000000000000000000000000000000000000000000000000000000000000000000000000000000000000000000000000000000000000041
:403F80000000000000000000000000000000000000000000000000000000000000000000000000000000000000000000000000000000000000000000000000000000000001
:0200000490303A
:0200000011E607
:0200000490402A
:200000000000000000000000000000000000000000000000000000000000000000000000E0
:0200000490501A
:0C000000000204C81193110104DE2379F2
:0200000490600A
:0100000001FE
:00000001FF