:400000000010002011000000A1280000A128000008B502F047FCC04638B50D4C23688025ED022B432360302002F092FD094A0A4B1A601022094B1A6080221206084B1A6025
:400040002560084A084B1A600022084B1A6038BD00010B400600008004010B400802024008010B4001000080000002400C020B4038B572B60024314D0CE063001B195B0085
:40008000EB1899881A8858880004104302F070FC0134E4B2012CF0D92849081C0C30303102F04AFCEE221202254B1A60254A264B1A60264B264A1360264A27490A60274944
:4000C0000B6027482749086027490B6027490A60274A1360274A284B1A60284B197802220A431A70264A11783C208143142001431170197816220A431A70FF22214B1A609F
:40010000214B22490B6004202149086021482249086022490A60224A13602022214B1A60214A224B1A600D23214A13602149224A1160224A1360FFF76FFF38BD1C3B000039
:400140000C000140FFFF0000100001400400990000500F400000555504500F4010500F400000050414500F4020500F4024500F4030500F400000055134500F4000700F40B6
:4001800001700F400000044049922400080004400001044089ED000008010440000204400802044000030440891D260008030440000404408E0D000008040440180404405F
:4001C00010B5064C2378002B07D1054B002B02D0044800E000BF0123237010BDE000002000000000382F000008B5084B002B03D00748084900E000BF07480368002B03D022
:40020000064B002B00D0984708BDC04600000000382F0000E4000020C80000200000000008B50B1C4101034A8918181C132201F017FA08BD9003002038B500240125201C0B
:4002400002F0DCFD2C1BE4B2FA2002F05FFCF6E770B5451E6D01194BED180023184903E0CA5CEA5401339BB21F2BF9D902231549154C3030261C1DE0E25C824218D15A1CE7
:40028000B25C3A2A14D102339BB200220E4C07E0D01D295401339BB2013292B21F2A02D8E15C2029F4D80732AD1800232B7003E001339BB28B42DFD970BDC04690030020A0
:4002C000383A0000FF0300001004002000B583B018481949012201F0C3F9002801D0FFF7ABFF144815498022D20001AB01F086FA002801D0FFF7A0FF019B114A1370190ACD
:400300005170104A0E48002101E0C15401339342FBD90120FFF79CFF0220FFF799FF0320FFF796FF0420FFF793FF024801F07EFC03B000BD68030020603A0000120400201C
:4003400010040020FF01000010B582B019481A49022201F085F9002801D0FFF76DFF154C201C002101F070FC201C01F08BFD002801D0FFF761FF11490B784A7812029A181C
:4003800002310C4801AB01F009FB002801D0FFF753FF0120FFF75CFF0220FFF759FF0320FFF756FF0420FFF753FF024801F03EFC02B010BD68030020603A000010040020CB
:4003C00010B5FA20400002F0A1FB0020134901F029F90023124A13480A2101E0C15401339342FBD910481149122201F039F9002801D0FFF721FF0C4C201C002101F024FC0B
:40040000201C01F03FFD002801D0FFF715FF064801F00CFCFFF75AFF10BDC04638010020FF03000010040020100800206C3A000008B50020024901F0F5F8FFF747FF08BD73
:4004400038010020F8B5012002F0D8FC012002F037FCFFF7B5FF002002F0D0FC002002F02FFC534B00221A705A7002229A708322DA704F221A710A225A71AA229A71552212
:40048000DA7101214B4A99541E1C4B4F02F012FC041C02E002F00EFC041C072CFAD0032C51D9062002F0BCFA062002F06DFA052C17D102F00DFB041C02F004FB0002241856
:4004C000C823DB01E418A5B2394C605DC043C0B202F054FA6B1CE05CC043C0B202F09AFA1DE002F0F5FA041C02F0ECFA00022418324BE418A4B202F099FC002807D02E4B4B
:400500001B195878C043C0B202F084FA02E0002002F080FA385DC043C0B202F02FFA002002F0C4FA02F0C6FB01E002F0C3FB0728FBD1012002F074FA012002F025FA01205C
:4005400002F0B4FAA2E702F0C3FA041C02F0BAFA00022418C823DB01E418A4B202F054FAC0433055651C02F09BFAC0437055002002F09CFA02F09EFB01E002F09BFB072823
:40058000FBD1012002F092FA0A4B9C4200D07DE7012002F095FB012002F030FC044801F03BFD002002F08CFB002002F027FC6DE710040020FE0300003C2F00000080FFFFD2
:4005C00004E00A7802701A1C01310130531E002AF7D17047C9B202E001701A1C0130531E002AF9D17047C04670B5031C002001E0291C331C541E002A07D05E1C18784D1C5A
:400600000B78C01A221C0028F2D070BD00E001300378002B01D08B42F9D1181C7047C04670B500250023204C1DE05A00D21892001259002A15D00668B24213D15A00D21848
:400640009200194EB21852688668B2420AD15A00D2189200144EB2181689C288964201D103E001350133022BDFD9032B09D1002D03D1022903D1002014E0002012E0122019
:4006800010E000290BD15A00D3189B00064AD3185A8980235B009A4203D1102002E0102000E0002070BDC046FC0000200020084A00E00130022805D843001B189B009B587A
:4006C000002BF6D10338431E9841C0B27047C046FC00002070B500232F4C18E05A00D218920012590568AA4210D15A00D2189200294EB21852688568AA4207D15A00D2184C
:400700009200B2181589C288954202D00133022BE4D9032B1CD101E0013301E000231E4C022B05D85A00D21892001259002AF3D1032B2CD0184D5A00D418A4000668665139
:400740002A1984685460C488101C148100224281002907D05A00D21892000F4882185289002A16D1002908D15A00D21892000A498A185089013080B201E0802040005A00CD
:40078000D218920004498A185081581C02E0002000E0002070BDC046FC000020013802281DD843001B189B000F4AD3185B8980225200934200D10023002B01D0013B9BB265
:4007C00042001218920008498A185381002B08D143001818800000224250002002E0022000E000207047C046FC00002030B50023084900240BE05A00D218920052588242E0
:4008000004D15A00D2189200024D54510133022BF1D930BDFC000020F8B55F4656464D464446F0B48B460C6800E0013423782F2BFBD05C2BF9D081698846081C20210B2282
:40084000FFF7C8FE0026002308279A4600E04B46591C8946E55C202D39D92F2D37D05C2D35D02E2D01D0BE420AD3082F57D12E2D57D152469300DBB29A4608260B27E6E76E
:400880006BB2002B06DA0323514619438A46803D294A555D2948291CFFF7B8FE002842D12B1C413B192B04D80223514619438A4609E02B1C613B192B05D8012352461A43D7
:4008C0009246203DEDB243469D550136BFE74C4459460C60202D01D8042300E00023002E23D041460A78E52A01D105220A70082F03D151468A00D2B29246032251460A40A7
:40090000012A01D1102213430C2251460A40042A01D1082213434246D372002006E0062004E0062002E0062000E006203CBC90469946A246AB46F8BD783A0000F83A000073
:4009400030B50B1C09330269002A35D044690022E52508E0A05C202807D0052800D1281C187001320133072AF4D9227A202A0CD02E221A700133082205E0A05C202804D093
:400980001870013201330A2AF7D9E27A0A72E07F0006A27F12040243607F00020243207F02430A60627E1202207E02438A80E27D1202A07D0243CA8000221A7030BDC04678
:4009C000F0B5474680B4041C0E1CC56A8D422ED00379002B1ED030210918884640782A1C012301F0ABFE002823D100232371226AE1695318AB420DD9E77809E0E269AD187B
:400A0000607841462A1C012301F098FE013FFFB2012FF3D8002E0ED0211C30316078321C012301F055FE002807D1E66206E0002004E0012002E0002000E0012004BC904656
:400A4000F0BDC04610B5041C0A1C011C30314078012301F03DFE002830D11C4BE25C12021B4BE35C1A4312B21A4B9A4228D16923E25C12066823E35C1B041A436723E35C5F
:400A80001B021A436623E35C1A431202120A124B9A4217D08523E25C12068423E35C1B041A438323E35C1B021A438223E35C1A431202120A084B9A4206D106E0032004E024
:400AC000022002E0002000E0012010BD2F0200002E02000055AAFFFF4641540008B500280CD00378002B0BD0C3888B420AD1407801F052FDC30707D5032006E0092004E0E2
:400B0000092002E0092000E0002008BDF8B55F4656464D464446F0B4161C03681C78303C092C05D85A783A2A04D10233036002E0002400E00024002C00D071E1A300CE4AA8
:400B4000D3185D6A0D60002D00D16BE12B78002B0CD0687801F020FDC10707D4002E00D162E1420700D561E100207EE100232B70E0B2687001F01AFDC30700D558E1002E7A
:400B800002D0460700D555E1281C0021FFF75AFF01281BD1F9235B00EB5C002B18D0FA23FF33EC5C2406FC235B00EB5C1B041C43F823FF33EB5C1B021C43FB235B00EB5CA1
:400BC0001C43281C211CFFF73DFF02E0002400E00024032800D12FE1002800D02EE13C23EA5C12023B23EB5C1A4312B280239B009A4200D024E14723EF5C3F024623EB5CB2
:400C00001F430DD15723EF5C3F065623EB5C1B041F435523EB5C1B021F435423EB5C1F43EF614023EB5CEB705A1E012A00D909E17B439B463D23E95CA970002900D103E1D5
:400C40004B1E0B4200D001E14223EA5C12024123EB5C1A4390462A8143461B0700D0F7E04423E85C00024323EB5C18430DD15323E85C00065223EB5C1B0418435123EB5C2E
:400C80001B0218435023EB5C18433F23EA5C12023E23EB5C1A43914600D1DBE0131C5B44464632099B189A46984200D2D4E0C01A02F0C4F8002800D1D0E0704B984201D85C
:400CC000012600E002266E4B984200D90326831CAB6151466218AA62494662182A62032E14D14246002A00D0BAE05F22A95C09065E22AA5C120411435D22AA5C120211432F
:400D00005C22AA5C0A436A629B000FE04146002900D1A7E05A446A62022E01D15B0005E003225A43520801210B40D318554A9B185B0A9F4200D297E001235B422B61002313
:400D4000EB60032E5DD16B716123EA5C12026023EB5C1A4312196A61291C30316878012301F0B6FC00284CD1474BEA5C1202474BEB5C1A4312B2464B9A4242D13323EA5C5E
:400D800012063223EB5C1B041A433123EB5C1B021A433023EB5C1A433E4B9A4231D13E4BEA5C12063D4BEB5C1B041A433C4BEB5C1B021A4385239B00EB5C1A43394B9A42CF
:400DC0001FD1394BEA5C1206384BEB5C1B041A43374BEB5C1B021A4387239B00EB5C1343EB60344BEA5C1206334BEB5C1B041A43324BEB5C1B021A4386239B00EB5C13432E
:400E00002B612E701C4A138D01339BB21385EB800024EC622C71281CFFF7E8FC201C24E00B2022E00C2020E000201EE00A201CE003201AE00A2018E0012016E00D2014E07D
:400E40000D2012E00D2010E00D200EE00D200CE00D200AE00D2008E00D2006E00D2004E00D2002E00D2000E00D203CBC90469946A246AB46F8BDC046FC000020F50F000008
:400E8000F5FF0000FF0100002F0200002E02000055AAFFFF52526141170200001602000015020000727241611F0200001E0200001D0200001B0200001A0200001902000018
:400EC000F8B5041C0021FFF77BFD051E53D12378032B48D16379002B45D00026E662271C3037381C002180229200FFF773FB5522224BE254AA22224BE25452233022A354E5
:400F00003122A35461233222A35441223321625472218520800021541A4821541A4962541A4AA354236986229200A354190A184AA154190C174AA1541B0E174AA354E36835
:400F400087229200A354190A144AA154190C144AA1541B0E134AA3546078391C6269012301F0ECFB667160780021002201F030FC002800D00125281CF8BDC0462E02000084
:400F80002F020000150200001602000017020000190200001A0200001B0200001D0200001E0200001F02000002398369023B8B4204D983785943836AC81800E000207047DB
:400FC000F8B5051C0C1E012C60D983698B425FD90378022B28D0032B3BD0012B5AD14E088E19710A036A5918FFF7EAFC002854D1F305DB0DEB1830331F780136710A2B6ACF
:401000005918281CFFF7DCFC002849D1F605F60DAD193035287800020743E30701D5380946E03805000D43E0090A036A5918FFF7C7FC002837D16400FF235B001C40231CEC
:401040003033EB18587800022C193034237818432EE0C909036A5918FFF7B2FC002825D1A400FE235B001C40231C3033EB18D87800069A78120410435B781B0218432C1997
:401080003034237818430001000911E001200FE001200DE0012040420AE00120404207E00120404204E00120404201E001204042F8BDC04670B5041C0D1CE180816801295B
:4010C00037D003689A698A4235D9002903D11A78032A00D1596A002908D1E1601A89AA422BD95A6A2B09D318236119E09E7836010DE02068FFF764FF011C431C1FD001286C
:401100001FD923689B6983421DD9AD1BADB2B542EFD2E1602068FFF747FF2B09C01820610F231D406B0130332268D318636100200AE0022008E0022006E0022004E0012022
:4011400002E0022000E0022070BDC046F8B5051C0C1C161C012979D983698B4278D90378022B3FD0032B51D0012B6BD14F08CF19790A036A5918FFF723FC002863D1FB0509
:40118000DB0D012214400AD0EA1830321078FF21314009010F2202400A43D2B200E0F2B2EB1830331A70013701232B71790A2B6A5918281CFFF704FC002844D1FF05FF0DAF
:4011C000002C02D03609F6B208E0EB1930331A780F239A433605330F161C1E43EF1930373E7030E0090A036A5918FFF7E9FB002829D16400FF235B001C40231C3033EB180E
:401200002C1930342670360A5E701CE0C909036A5918FFF7D5FB002815D1A400FE235B001C40231C3033EB18DA782C1930341209120716432670320A5A70320C9A70360E10
:40124000DE7000E0022001232B7102E0022000E00220F8BDF0B5474680B4051C8846002906D1C668002E0DD08269B2420CD90CE04146FFF7A5FE01283FD9AB69834241D812
:40128000464602E0012600E00126341C02270134AA69A24202D8012E31D93C1C281C211CFFF78EFE002806D0431C2BD0012829D0B442ECD125E0281C211C144AFFF746FF33
:4012C000002807D14246002A04D0281C4146221CFFF73CFF002808D1EC602B695A1C0AD0013B2B6101236B7105E0012802D10124644200E00124201C04E0012002E0002041
:4013000000E0002004BC9046F0BDC046FFFFFF0FF0B557464E464546E0B4041C0E1CC5880135ADB2002D6AD00369002B69D00F272F405CD101330361C168002904D1026805
:401340001389AB425FD952E02B0900688278013A1A424CD1FFF734FE8046012855D94346013354D020688269424539D8002E50D0E168FFF76FFF804600284CD001284CD0B5
:40138000434601334BD020680021FFF719FB002847D120683030002180229200FFF71AF92668301C4146FFF7FFFDF062002601229246B1460DE052461A7120684946FFF742
:4013C000FFFA00282FD12368DA6A0132DA620136F6B223689A78B242EDD8DA6A961BDE624346E36020684146FFF7DEFD2061E5807F0130372268D7196761002014E0042031
:4014000012E0042010E004200EE002200CE001200AE0042008E0072006E0022004E0012002E0012000E001201CBC90469946A246F0BDC04670B5041C0021FFF73BFE002852
:401440001CD1082620682169FFF7BAFA051E14D160690378002B0FD0C37A1E4205D1A1690B22FFF7C1F8002807D0201C0021FFF74FFF051EE6D000E00425281C70BDC046ED
:4014800070B582B0041C01910B782F2B01D05C2B01D1013101910023A360019A13781F2B06D8201C0021FFF705FE0023636129E004251026201C01A9FFF7AEF9002821D1A2
:4014C000201CFFF7B7FFA269D37A002804D0042818D15A0713D515E01D4213D16369DA7A16420ED05A7D1202197D0A431204D87E0002997E031C0B431343A360DAE70520C5
:4015000000E0052002B070BD70B5051C0021FFF7D1FD041E11D128682969FFF751FA041E0BD16A691378E52B07D0002B05D0281C0121FFF7EDFE041EEDD0002C13D128682C
:401540002969FFF73DFA041E0DD16E69301C00212022FFF73FF8301CA9690B22FFF730F82B6801221A71201C70BDC04638B5041C0420082515E02068FFF722FA002815D1A5
:4015800061690A78002A10D0E52A04D02E2A02D0CA7A15420AD0201C0021FFF7B9FE002804D121690029E6D100E00420002801D00022226138BDC046F0B5474680B4041CBF
:4015C0000D1E012D23D982698A4222D900270123984618E0201C291CFFF7F2FC061E1DD0012818D0421C18D0201C291C0022FFF7ADFD071E12D123695A1C03D0013323611E
:4016000043466371351CA269AA42E3D806E0022704E0022702E0022700E00127381C04BC9046F0BD70B5041C0D1C002814D183000A4AD3185E6A002E04D0301CFFF7D6F86D
:4016400000233370002D01D000232B70A400034B1C196562002000E00B2070BDFC000020F0B54F464646C0B48DB0061C01919046002303601F2717401E2243461A4001A896
:4016800005A9FFF743FA041C02AB0B93002804D105A80199FFF7F4FE041C0A9D002C0CD1002D09D00123391C99434B1E994105A8FEF7B6FF041C00E006241C2342461342A7
:4016C00052D0002C0FD0042C09D1FEF7EFFF002804D005A8FFF718FF041C00E0122408231F430A9D0AE0EB7A11221A4203D143465B0702D402E0072400E00824002C41D1E6
:401700003A073FD501F0C8F8A873030AEB73030C2B74000E68740023EB722B776B77AB77EB77697D09022A7D11430904EA7E1202A87E024311438846AB76EB762B756B75F9
:4017400005980123037100291CD0C36A9946FFF733FF041E16D105984346013BC3604946FFF72EF9041C0DE0002C0BD1EB7ADA0605D44246920705D5DA0702D402E00424C2
:4017800000E00724002C13D13B0701D520231F43059BDB6AF36135620123391C99434B1E994105A8FEF796FF7062002800D10224002C1DD1B7716A7D1202297D0A4312047B
:4017C000EB7E1B02A97E0B4313433361EA7F1206AB7F1B0413436A7F120213432A7F1343F3600023B360B361059B3360DB88B380201C0DB00CBC90469946F0BDF0B55F46BF
:4018000056464D464446F0B483B0041C0F1C90461E1C0023336081880068FFF75FF9002800D0B4E0A3795AB2002A00DAACE0D80700D4ABE0E568A0682D1A0195A84500D9CE
:401840009CE04546019599E0A368DA0567D15A0A206881780139C9B20A40904619D1002B01D1206902E06169FFF7AAFB012806D8A27980235B421343A371022087E0411C0D
:4018800006D1A27980235B421343A37101207EE0606122689246101C6169FFF785FB002806D1A27980235B421343A37102206EE08346C344019D6D0AA9462ED0404642466A
:4018C0004A4451468B789A4201D91A1A914653465878391C5A46FF234D462B4000F0F8FE002806D0A27980235B421343A37101204DE021680B79002B0BD0C86A5A46831A08
:401900004B4506D25B023031F81880229200FEF757FE4B465B02994623E05D46A561A068C305DB0D80218900CB1A9946019DAB4200D9A9462068A169FFF742F8002806D0C1
:40194000A27980235B421343A37101201FE0A268D105C90D303123685918381C4A46FEF72FFE4F44A5682B1C4B44A3603068031C4B443360019D48462D1A0195019D002D43
:4019800000D061E7002002E0022000E0072003B03CBC90469946A246AB46F0BDF0B55F4656464D464446F0B483B0041C0191151C1E1C0023336081880068FFF78FF800283B
:4019C00000D0EDE0A3795AB2002A00DAE5E0990700D4E4E0E3685A19934200D8CFE00025CDE0A368DA0500D097E05A0A206881780139C9B20A40914624D1002B08D12369C4
:401A0000002B09D10021FFF725FC031C206103E06169FFF71FFC031C002B00D1B2E0012B06D1A27980235B421343A3710220B7E05A1C06D1A27980235B421343A3710120AA
:401A4000AEE063612068C36AA769BB420BD10021FEF7B6FF002806D0A27980235B421343A37101209CE021688A46081C6169FFF79BFA002806D1A27980235B421343A371B5
:401A800002208DE08346CB446B0A98462FD04F464A46424451468B789A4201D9DA1B90465346587801995A46FF2347463B4000F045FE002806D0A27980235B421343A371E4
:401AC00001206DE02068C16A5A468B1A43450AD230305B02019FF91880229200FEF770FD002321680B7142465202904639E0A368E768BB420FD350460021FEF761FF0028B8
:401B000006D0A27980235B421343A371012047E023685946D9625A46A261A768FB05DB0D80218900CB1A9846AB4200D9A8462068A169FEF745FF002806D0A27980235B42FE
:401B40001343A37101202BE0A268D005C00D30302368181801994246FEF732FD012127683971019A171C47440197A1680B1C4344A3603268131C434433604346ED1A002D1C
:401B800000D02EE7A368E768BB4200D9E360A27920231343A371002002E0022000E0072003B03CBC90469946A246AB46F0BDC04638B5041C81880068FEF790FF002833D1C0
:401BC000A3799A0630D52068E169FEF7F9FE00282AD1256AEA7A20231343EB72237B2B77A3891B0A6B77A37BAB77E37BEB77237CAB76238A1B0AEB76A37C2B75638A1B0A23
:401C00006B7500F049FEA875030AEB75030C2B76000E6876A37920229343A3710123226813712068FFF74CF938BDC04610B5041CFFF7BEFF002802D1606AFEF7AFFD002809
:401C400001D10022226010BDF0B557464E464546E0B4041C0D1C81880068FEF73FFF071E00D0A2E0A3795AB2002A00DA9EE0E268AA4202D2990700D4151CA268904600236C
:401C8000A360002D7DD0236899469E787602002A14D0681E311C01F0D1F8824601235B4298444046311C01F0C9F8824506D3734241460B40A360ED1A61691AE02169002982
:401CC00016D14846FFF7C6FA011E012906D1A27980235B421343A371022068E0421C06D1A27980235B421343A37101205FE02061616100292BD1002546E0A2794346134264
:401D000005D02068FFF7A6FA011E04D124E02068FFF756F9011C4A1C06D1A27980235B421343A371012042E0012903D9226892698A4206D8A27980235B421343A37102206D
:401D400035E06161A3689A19A260AD1B01E002229046B542D1D800E0351CA3685A19A260EA0510D02068FFF71FF9002806D1A27980235B421343A371022018E06D0A2D18D9
:401D800002E0002500E00025A368DA0503D0A169A94200D0A561E268934204D9E360A27920231343A371381C01E000E002201CBC90469946A246F0BD30B587B0041C019161
:401DC00001A8211C0022FEF7A1FE002827D103ABA361201C0199FFF753FB00281CD16269002A10D0D17ACB060CD5517D0902137D19430904D57E2D02937E2A1C1A430A431F
:401E0000A26000E00520002806D12268D388A380201C0021FFF74EF9042800D1052007B030BDC046F0B585B0041C0F1C81880068FEF754FE061E22D1002F04D1201C0021D9
:401E4000FFF738F91BE001ABA361201CFFF78EFB051E042D02D100232361351C002D0DD1201C391CFEF76CFD201C0021FFF750FA042804D100232361281C00E0281C05B05A
:401E8000F0BDC04670B5041C81880068FEF726FE051E09D1A3795AB2002A02DB9A0702D502E0022500E00725002D35D1A368E2689A422AD9E360A17920220A43A271002B56
:401EC00007D120682169FFF777FB051C002323611BE020686169FFF773F8061C431C00D10125012E00D10225002D0ED120688269B2420AD96169094AFFF728F9051E04D1F9
:401F00002068311CFFF758FB051C002D04D0A27980235B421343A371281C70BDFFFFFF0F08B500F0E7FE08BD08B500F001FF00F00DFF0028FBD100F0F3FE0028FBD000F067
:401F4000E9FEC0B208BDC04608B5FF20FFF7ECFF08BDC046F0B557464E464546E0B48EB0071C8846924601A81A49FFF725FF002801D0FEF761F90024002508AEC146D14430
:401F800001A8311CFFF74EFF002817D1737A002B14D02E2BF4D045450EDBA9450CDD5346002B09DD6B462933611C04341A783A5501330C1C002AF7D10135E1E73C702412BA
:401FC0007C70BD702D12FD700EB01CBC90469946A246F0BD083B000030B500230D49202202E0CA540133DBB2052BFAD9094B0022DA710A229A710523064D072406E05A1E99
:40200000211C01403031E954C008D3B20028F6D130BDC04660080020F0B557464E464546E0B482B0041CC04BC35C002B02D1FEF7FFF9B8E1052B04D1FA20800000F07EFDCE
:40204000B1E1042B5DD18378002B08D1ABE1802189005A18C15CA15401339BB201E00023B2480A2BF3D9B24D281CB2490322FFF7F7FA281CE968FFF7E7FD80229200A11812
:40208000281C0A2201ABFFF789FC002801D002232370A94B1868421C1A6080B2FFF79CFFA348A649072201ABFFF778FC002801D00223237000259E4FA04E16E02B1D5B0066
:4020C000E35C6A000932A05C0002181880B2FFF783FF381C311C072201ABFFF75FFC002801D0022323700135ADB2A378AB42E5D88F48FFF79BFD002800D154E10223237007
:4021000051E1062B02D1FEF7E1F84CE1072B02D1FEF71AF947E1082B0BD1007861780902A378E278120241189A18201CFFF712FF39E1032B05D8C3787F2018408049FEF7E2
:402140006FF8A378012B08D0022B0BD0032B0ED05027012398460A250EE05027002080460A2509E05027012188460A2504E080277F0001229046FF25724B1A88A9462B1C68
:402180005343391C59434046002800D049006C48C668002E13D08E4211D04146002908D0520049465143301C00F048FE87B2311C05E0301C191C00F041FE87B2311C002EDF
:4021C00002D15F48FFF740FD574BE35C022B17D8A278032A0ED82279BA420BD26279002A08D0954206D34246002A21D10322A256002A1DDA012323705148FFF717FDD2E019
:40220000032B15D1A278032A0CD82279BA4209D26279002A06D04046002809D10322A256002A05DA012323704548FFF7FFFCBAE000222270012B32D1424B1B8821794A4658
:4022400051434246013251436279013A891859430322A256002A02DA48464343C918384D281CFFF7F1FC211C0831364B1A88281C01ABFFF7C3FA002802D00530207006E083
:40228000304B1B8801998B4201D902232370019BA3711B0AE3712A48FFF7C8FC83E0022B2AD1284B1B882279484642434146013151436279013A891859430322A256002A7C
:4022C00001DA4343C9181E4E301CFFF7BDFC211C08311C4D2A88301C01ABFFF75FFB2A88019B9A4201D902222270A3711B0AE3711348FFF79BFC56E0032B52D1114B1B88A7
:40230000227949464A4341460131514359430322A256002A02DA4A465343C9180848FFF793FC0023074819E0FE030000103B0000100800206C3A0000280100206008002098
:4023400038080020CC0000201A1D5200A179A1545A000932E179A15401339BB2028852089A42F1D8002608231B199A4611488146114988460AE04B461A884046514601ABF8
:40238000FFF70CFB002804D10136B6B22F1EB742F1D8BE4201D2022323700748FFF746FC01E00423237002B01CBC90469946A246F0BDC046CC0000203808002038B5051C94
:4023C0000C1CFFF7C1FD2870013C0135002CF8D138BDC04630B583B00A4C6D4607350AE0281C0121FFF7EAFF2B78FF2B05D0642000F0A4FB013C002CF2D1631E9C41E0B2A9
:4024000003B030BD88130000F0B583B0071C0E1CFA24A40001AD0AE0281C0121FFF7CEFF2B78FF2B05D1642000F088FB013C002CF2D101AB1B78FE2B09D1381C311CFFF71A
:40244000BDFF01A80221FFF7B9FF012000E0002003B0F0BD00B583B0012000F0DBFC684607300121FFF7AAFF03B000BD10B582B0002000F0CFFC684607300121FFF79EFF53
:40248000FFF7A8FF041E02D1FFF7E4FF00E00124201C02B010BDC04638B50C1C451C0078FFF742FD013C281C002CF7D138BDC04630B583B0041C0D1C43B2002B07DA7F2354
:4024C0001C4037200021FFF7F3FF012838D80C2C05D0FFF7BFFFFFF7C9FF00282FD0402323436A4613702B0E53702B0C93702B0AD3701571002C01D0012300E09523082C24
:4025000000D187236A46537168460621FFF7C4FF0C2C04D1684607300121FFF74FFF0A246D460735281C0121FFF748FF287843B2002B05DA013CE4B2002CF3D100E0FF20A5
:4025400003B030BD30B583B0051C0C1CFFF742FF00281ED001A804700121FFF79DFFFD2C14D0281C80218900FFF796FF01AC201C0221FFF723FF201C0121FFF71FFF237805
:402580001F221340052B03D0002002E0012000E0012003B030BDC046002802D1024B187800E001207047C046CE000020F0B585B0002800D085E0FFF7B3FC142403E0FFF749
:4025C000C3FC013CE4B2002CF9D100200021FFF76FFF01285FD10820D5214900FFF768FF012833D101AC201C0421FFF7E7FEA378012B52D101ABDB78AA2B0CD0002555E007
:40260000A920311CFFF754FF00280BD0281C00F095FA013C04E0FA24A4008026F605251C002CEDD1002C3AD03A200021FFF740FF002836D101AC201C0421FFF7BFFE237855
:402640005A0601D50C2531E004252FE0A9200021FFF72EFF012802D8A926022501E001260125FA24A400271C09E0301C0021FFF71FFF002805D0381C00F060FA013C002C03
:40268000F3D1002C0FD0102080218900FFF710FF00280AD10AE0002508E0002506E0002504E0002502E0002500E00025064B1D706B425D41EDB2054B1D70FFF7CBFE281C05
:4026C00000E0032005B0F0BD2C010020CE000020F8B50D1C161C1C1CFFF75EFFC20729D4154B1B781A0700D47602012C01D9122700E01127381C311CFFF7DAFE002813D1AE
:402700008026B600281C311CFFF77EFE002805D080239B00ED18013C002CF3D1122F03D10C200021FFF7C4FEFFF794FE631E9C41E0B200E00320F8BD2C01002070B50D1CE8
:40274000161C1C1CFFF728FFC2073CD41F4B1B781A0700D47602012C0CD11820311CFFF7A7FE002829D1281CFE21FFF7EBFE002820D122E006221A4203D09720211CFFF7A5
:4027800097FE1920311CFFF793FE002815D1281CFC21FFF7D7FE002805D080239B00ED18013C002CF3D10020FD21FFF7CBFE002802D002E0002400E00124FFF74BFE631E0E
:4027C0009C41E0B200E0032070BDC0462C01002030B585B00C1C151CFFF7DEFEC10757D4012C0AD0002C02D0032C42D045E0FFF73DFE002843D1012446E009200021FFF74C
:4028000057FE00283DD168461021FFF7FDFD002839D06A4613789B09012B0ED1527A6C46237A1B02D218E3793F210B401B04D31801339B022B60002426E05079937ADB09B0
:40284000527A0F210140591803231A40520089186A46107A8009D279920082186C46A07903409B02D2180132CB1F9A402A6000240AE080232B60002406E0042404E0002471
:4028800002E0012400E00124FFF7E4FD201C00E0032005B030BDC0460048704721038F40FEE7C046F8B50F4F0F4E002412E031687368B568221C02E001C901C30432AA4292
:4028C000FAD1F168221C01E010C304328A42FBD11036013F002FEAD100F000FBFDF7B2FDFEE7C04601000000D83D000038B500230D4C0E4D0E4808E0032B02D89A005159A7
:4029000000E0211C9A00115001332F2BF4D9FDF7AFFB0022074B1A608023DB05196801220A431A6038BDC046A12800000000000000000020C0000020F0B500220027FF23D6
:402940009C4611E0BB00C658F3B26446A64308E054000C192578AD1964782C700132013BDBB2002BF4D10137082FEBD9F0BDC04608B50A1C002100F0D7FA08BD014B1A680D
:402980001860704700020440184B1A6807218A4302431A601A6838218A43C1000A431A601968134A0A4081010A431A601968114A0A4041020A431A6019680F4A0A40010310
:4029C0000A431A6019680D4A0A40C1030A431A6019680B4A0A4081040A431A601968094A11404205081C104318607047080204403FFEFFFFFFF1FFFFFF8FFFFFFF7FFCFF69
:402A0000FFFFE3FFFFFF1FFF014B1868C0B2704704020440014B1A681860704700000440184B1A6807218A4302431A601A6838218A43C1000A431A601968134A0A408101A7
:402A40000A431A601968114A0A4041020A431A6019680F4A0A4001030A431A6019680D4A0A40C1030A431A6019680B4A0A4081040A431A601968094A11404205081C104374
:402A800018607047080004403FFEFFFFFFF1FFFFFF8FFFFFFF7FFCFFFFFFE3FFFFFF1FFF014B1868C0B2704704000440044B1968DF220A40400120210840104318607047CD
:402AC00000030440014B1878C0B2704761000F40014B1878C0B2704762000F40000000000230800804D0C0460138FDD1C046C046C0467047EFF3108072B6704780F3108864
:402B00007047C046C046C04601BE704770B5041C80252D02074E04E03068FFF7E1FF064BE418AC42F8D8034B58686043FFF7D8FF70BDC046D00000200080FFFF08B5034B61
:402B40001B7A5843FFF7CCFF08BDC046D0000020F0B557464E464546E0B4041CC51E2D2D79D8414B1B78DBB2834208D33F4B1B78DBB29A463E4B1B78DBB2994631E03D4B0F
:402B80001B78DBB2834208D33B4B1B78DBB29A463A4B1B78DBB2994623E0394B1B78DBB2834208D3374B1B78DBB29A46364B1B78DBB2994615E0354B1B78DBB2834208D3CD
:402BC000334B1B78DBB29A46324B1B78DBB2994607E0314B1B78DBB29A46304B1B78DBB299462F4B5E5DFFF785FF80462F2E09D92A2C07D919222B4B1A600520FFF770FF5F
:402C0000192703E0274B1F683F231F40BE4206D2234B5A5D234B1A600520FFF761FF1F4AA4182278D2B2204B1A60204B52461A601F4B4A461A600520FFF780FFBE4206D9C5
:402C4000174B5A5D174B1A600520FFF749FF4046FFF754FF02E00020FFF756FF1CBC90469946A246F0BDC046C0F1FF0FC1F1FF0FC2F1FF0FC3F1FF0FC4F1FF0FC5F1FF0F2F
:402C8000C6F1FF0FC7F1FF0FC8F1FF0FC9F1FF0FCAF1FF0FCBF1FF0FCCF1FF0FCDF1FF0F843D00002CFF0B4028FF0B401CFF0B4020FF0B40014B1878C0B2704763000F40A0
:402CC000044B1968FB220A408000042108401043186070470001044008B500F04FF808BD034B1968802212060A431A607047C0460000064008B5064B1B78002B04D1FFF746
:402D0000EBFF0122024B1A70FFF7EAFF08BDC04630010020014B18687047C04640030640024B1B680F2018407047C0460803064004490F220B681340082BFBD0024B186036
:402D40007047C0460802064040020640024B1B680F2018407047C04608020640054B1968054A0A408006C02109050840104318607047C04620000640FFFFFFF308B5104A3E
:402D8000104B1A60104A114B1A60114B114A13600721114A1160114A13600023104A1360104A1360104A1360104A1360104A1360104A1360104A13600020FFF7CFFF08BDBB
:402DC0000F0000010000064001000080200006400701008000030640040306400002064004020640880E0640C80E0640480F0640080F0640C80F0640880F0640044B196828
:402E0000F7220A40C0000821084010431860704700010440044B1968EF220A4000011021084010431860704700010440024B18688006C00F7047C04604010440002934D076
:402E40000123002210B488422CD301242407A14204D2814202D209011B01F8E7E400A14204D2814202D249005B00F8E7884201D3401A1A434C08A04202D3001B5C082243DF
:402E80008C08A04202D3001B9C082243CC08A04202D3001BDC082243002803D01B0901D00909E3E7101C10BC7047002801D00020C04307B4024802A14018029003BDC046C5
:402EC000190000000029F0D003B5FFF7B9FF0EBC4243891A1847C0467047C04670B50E4B0E4D0024ED1AAD101E1CAC4204D0A300F35898470134F8E700F05CFF084B094DC4
:402F00000024ED1AAD101E1CAC4204D0A300F35898470134F8E770BDC03D0000C03D0000C03D0000C83D0000031C8218934202D019700133FAE7704700000000A000060147
:402F4000000000000000000000000000C6154A01C115CC00DF099000DF174A02FA00DF096600DF8BF8000503C115DE00DF09900000005F0000106610C11574FFC9B58000C5
:402F8000FD03810A810A0990811587006610C115BCFDC9B58000FD03810A810A099081158700C315F800000AC090DF095000C300C090DF095000C015FF00DF095000DF09D5
:402FC0005000DF358000BCFDFC038700000A4094DF093A00C00BFB028700C015CA004210810C810C810CC245F8FFC2653000A090C025C400F402C115C400DF09900087000A
:403000000000000000000000424F4F543020FAC1C7D2D5D6C5CE0A0D0000424F4F543120EFDBC9C2CBC120DAC1C7D2D5DACBC9200A0D000000081100000200107C04000084
:403040000000000000000000000000000000000000000000000000000000000000000000000000000000000000000000000000000000000000000000000000000000000050
:403080000000000000000000000000000000000000000000000000000000000000000000000000000000000000000000000000000000000000000000000000000000000010
:4030C00000000000000000000000000000000000000000000000000000000000000000000000000000000000000000000000000000000000000000000000000000000000D0
:40310000000000000000000000000000000000000000000000000000000000000000000000000000000000000000000000000000000000000000000000000000A000C11519
:403140009E12DF099000C115F800D115000177127403D1151A00D1150000D115FFFFDF096600C115F800D1150002DF17FE004C01DF096600DFE5BF024C01C115F800D1158F
:403180000001D1151A00110AD1174C01DF096600DF17FC004E01DF17FE004C01C115F800D1150001D1151A00110AD115BA02DF096600DF8BF8000403C115FC12DF09900069
:4031C000DF17FC005001DF17FE005201DF174E01FC00DF174C01FE00DF150002F800DF096600DF175001FC00DF175201FE00C115B012DF099000C117FC00DF099E00C115BD
:40320000C812DF099000DF158413FE00DF15BA020001DF150010F800DF096600DF8BF8000403C1151A13DF099000C115CC12DF099000DF150018F800DF096600DF8BF800F4
:403240000403C1154013DF099000C115EA12DF099000C115C400DF099000C115C812DF099000C1152800C0150010017E447EC115F800D1150008D11D4C02D115001CD1151E
:403280000020D115FF00DF096600C1150020C90B140344144210C1158E12DF099000C3150A00C5150D008094DF093A0003A003024011DF093A00097F0401C1156A12DF0961
:4032C0009000A000C6156812C1152C12D1150008D1150200D1150001D1150000D1150001C0150020017EF7091A00C0150000DF25A000000002025F000000C1155813F70900
:4033000058000000C3152C12000AC090F7091E00C300C090F7091600C015FF00F7090E00F7090A00DF358000BCFDFC0387006610C115BCFDC9B58000FD03810A810A09900D
:40334000811587006610C11574FFC9B58000FD03810A810A099081158700000A4094F709E2FFC00BFB02870000000000000000000000000000000000000000000000000099
:403380000000000000000000000000000000000000000000000000000000000000000000000000000000EFDBC9C2CBC120DED4C5CEC9D1206D61702E74787420D320534497
:4033C0002DCBC1D2D4D90A0D000073642F6D61702E747874203A0A0D0000424F4F543120FAD5C7D2D5D6C5CE0A0D0000F0C1CDD1D4D820F0F020D7D9C4C5CCC5CEC1202045
:40340000402000000A0D0000424F4F543220FAC1C7D2D5D6C5CE20D720D0C1CDD1D4D820F0F00A0D0000424F4F543220FAC1D0D5DDC5CE2040200000EFDBC9C2CBC120D746
:40344000D9C4C5CCC5CEC9D120D0C1CDD1D4C920F0F00A0D0000EFDBC9C2CBC120DAC1C7D2D5DACBC920424F4F543220D720D0C1CDD1D4D820F0F0200A0D0000EFDBC9C272
:40348000CBC120DAC1D0D5D3CBC120424F4F54320A0D0000EFDBC9C2CBC12E20EEC5CBCFD2D2C5CBD4CED9CA20DAC1C7D2D5DACFDECED9CA20D3C5CBD4CFD22E0A0D0000D1
:4034C000A00077004E050000000000000000F717C8FFF8FFF717CEFFF0FFDF451000C8FFDF450800CEFFDF550400CEFFDF350100CEFFFC022610C08DC05580008015F71738
:403500002CFEC4FFC41DBEFFC400C48B0303C4150A000201C41502001F112CFE8700DF1DA6FF2CFEDF1DA2FFCEFFDF1D9EFFC8FF2610C08DC045800080158700C111C16594
:4035400058005F10460E8700F70982FFDF150500FE9FF709C8FFF70974FFF709C0FF87006610F70968FFC115089CC51506005F11029C1F1008FED1170CFE800A467FDF1563
:403580000400FE9FF70996FFF70942FFF7098EFF81158700A000A000A000F7099EFFC0178026A100000C0110800A1F1008FEC0170CFE020A0290C20B0303972003000483E0
:4035C000DF0918AA5F0074F84010F7097AFF5F1008FEC0170CFEC00017A003001E8317A008001D0317A010001D0317A018001D0317A041001D0317A042001D0317A043003C
:403600001D03C01509005F1008FE1F900CFEDF0A320EDF0B34FE5F0074F8000AF401F7092000F101F7093800EE01F7095000EB01F709AC02E801F7090C03E501F7095403F7
:40364000E2016610F7097200F709B400F70B66000302F70B5E00F8028115C01D580087006610F7095400F709D600F70B48000302F70B4000F8028115C01D3A0087006610DD
:40368000F7093600F70946FE8013C06503001F1008FEDF170CFE069CDF150300FE9FF7097CFEF70928FEC017009CF70970FE811587000000000000000000F70910FE370A7D
:4036C000F6FF4210820AC415009C140A9F1008FED4170CFE820A9F1008FED4170CFE820A9F1008FEF7170CFEC8FF820A9F1008FEF7170CFEBEFF370ABCFFF70920FE8700AD
:40370000F70BB4FF0303C01553001301F709BEFDDF150100FE9FF70904FEF709B0FDC017009C0702C017069CA100000CF70962000201371080FFF7093601F709E0FD87002E
:40374000F70B74FF0303C01553001C01F7097EFDF7096E00DF150200FE9FF709C0FDF7096CFDC017009C0E02C017069C376042FFA100000C37E03CFFF70B38FF0580370A15
:4037800032FF020137102EFFF709E400F7098EFD8700C11D1EFF012001054010C11D12FFA100010C37E00CFFC215089C5F1008FE9F140CFE810A067EA100410C7710F2FE19
:4037C0008700C11DEEFEC0150001012001054010C11DDEFEA100010CC215089C5F1008FED2170CFE810A067E87004F0000000A0000004F0001000A000000FF000100000196
:403800000000C017049CC000C04500FF87002610C017049CC04500FFC0008055C0001F10049C8700C017049CC04500FF87002610C017049CC045FF0080551F10049C87008C
:40384000C017029CC03500800202000A8700C01501008700C00B0503C017029CC05500800401C017029CC04500801F10029C8700C017029CC04500FFC00AA100C00CC00CC0
:40388000C00CC06562FFC061011402140314F70970FF800A03200306F70972FF2001C0150100F70968FFF70996FFC00B0602800A02200306F7099CFF1201C0150100F709BE
:4038C0004CFFC0150000F7098AFFF70956FF800A01200306F70956FF0201B70ADAFD87004010800A800A1F1008FEC0170CFEA100000C6610A610C115029CF709D0FBDF1519
:403900000600FE9FF70916FCF709C2FBC217009CC23501000103820AA100020C1F1008FE5F140CFE800A867EF709F2FB821581154010800A800A800A1F1008FEDF17009C5A
:403940000CFE000A87006610A6104010800A800A1F1008FEC2170CFEA100020C800A1F1008FEC0170CFEC115009C0310A100430CF7095AFBD1109F1008FED1170CFE820AD7
:40398000067EDF150700FE9FF70992FB82158115000A87006610810A810A5F1008FEC0170CFE810A5F1008FEC2170CFEA100020C810A5F1008FEC3170CFEC515009CF709D2
:4039C0000CFB1510D510DF150800FE9FF7094EFBF709FAFA8113C415009C0015C03501000102800AA100000CC16504005F1008FE1F150CFE810A5F1008FE1F100CFE9F10CD
:403A000008FE1F150CFE820A067EF70910FB8115000A8700A000F70922FBF709B0FADF150000FE9FF709F6FAF709A2FAF709EEFA87000000000000002F6469736B732F662B
:403A4000696C656E616D6566696C656E616D6566696C656E616D655F5F5F5F2E657874002F6D61702E747874000000002F6C6F672E747874000000008081828284858687D9
:403A800088898A8B8C8D8E8F809192939495969798998A9B8C8D8E8FA0A2A2A3A4A5A6A7A8A9AAABACADAEAFB0B1B2B2A5B5B6B7A8B9AABBA3BDBDAFC0C1C2C3C4C5C6C7DF
:403AC000C8C9CACBCCCDCECFD0D1D2D3D4D5D6D7D8D9DADBDCDDDEDFC0C1C2C3C4C5C6C7C8C9CACBCCCDCECFD0D1D2D3D4D5D6D7D8D9DADBDCDDDEDF222A2B2C3A3B3C3D71
:403B00003E3F5B5D7C7F00002F6469736B7300004C6F6720656E7472793A000000300F40000400400F40000438300F403B310F4022320F4049330F400E400F400D410F402A
:403B40000D420F4014430F4002600F400001010F0401050F0A010B0F0D020E010F011108120113011504160117011A011B0F1C011D0F2201230F2401250F2801290F2E017F
:403B80002F0F32013501370E380839A03E043F50580459045F018908940498019C029D04A901AD02B002B104B204B302B401B508B701D80BD90BDB04DC99DF010108028931
:403BC00008110B220D040E040F02121013AA19041D201EA01F102250248826082789284029082A812B042D402F0430013110328833013602374238883A423B223D205D01B1
:403C00005EA05F04650966507F8081218340840185018608870588048A018C808F20C00FC2EFC40FCA3FCC1FCE2FD6F0D8F0DE80E41000020104050806010C040D0214082A
:403C40001D012201260128012C01300231013204330434083508360137023E40580B590B5B045C995F01A001A402B201B402D80BDB04DC09DF010440051207240F101020C7
:403C80001102144015101642178419281C201E841F80252826012702349037203C083E4145284628580159045AA05B025D205E866401662867807B807F808304841086800E
:403CC000876089108AC08B808E028F04904092E19310988099069C509D189E82A024A101A682A784A951AD04AE04AF04B020B102B310B440B640C0B0C220C4FCCC10CED0E9
:403D0000D6FED8F0DE81E604011003800510064009800A800E100F04824087808F80C0F0C2F0E4900210078086109F80A990AA10AD10AE40AF04C030E040E8D0ECB0002298
:403D400004100680081009040C040F0888148C10C00FC20FE20CE6010002050209020A010F018102880189028A018F01B011B280B504B704C00CC20BE201E60DEA03EE0717
:403D800002011101030405060708090A0B0C0E0F101112131415161718191B1C1D1E1F2021222325262728292A2B2E2F3031323334350000F8B5C046F8BC08BC9E46704738
:403DC000E9010000ED280000F8B5C046F8BC08BC9E467047C1010000E83D0000C8000020180000009007000000000000000201000000C05D80BB000030000000006CDC02AB
:403E00000000000000000000000000000000000000000000000000000000000000000000000000000000000000000000000000000000000000000000000000000000000082
:403E40000000000000000000000000000000000000000000000000000000000000000000000000000000000000000000000000000000000000000000000000000000000042
:403E80000000000000000000000000000000000000000000000000000000000000000000000000000000000000000000000000000000000000000000000000000000000002
:403EC00000000000000000000000000000000000000000000000000000000000000000000000000000000000000000000000000000000000000000000000000000000000C2
:0200000490303A
:02000000C062DC
:0200000490402A
:200000000000000000000000000000000000000000000000000000000000000000000000E0
:0200000490501A
:0C000000000204C81193110104DDD1F5C9
:0200000490600A
:0100000001FE
:00000001FF