:4000000000100020110000007D2400007D24000008B502F035FA0000F8B572B680220021D200474802F094FD80224648D200002102F08EFD0022141C4349FF25575824313D
:400040003E1C081C6300AE433D4001336419CB186100013141188B4206D0581E00781D78801905700233F6E70432242AE4D1EE22364B12021A60364A364B37491A60374B96
:40008000374A38481360384A80250A603749384C0B603849ED02086037493C200B6037490A600221364A1360364A374B1A60374A13780B43364913700B78834328380343E6
:4000C0000B701621137830300B431370FF22314B31491A60314B0B60314908603148324908608020314940010860314930200A60304A314913602022304B1A60304A314B51
:400100001A600D23304A1360304A1160304A136023682B43236002F0DFFA2E4A2E4B1A6010222E4B1A6080222D4B12061A602D4A2D4B25601A6000222C4B1A60F8BDC04611
:4001400000300F4000400F403C3700000C000140FFFF00001000014004500F400400990000500F40000005040000555510500F4000010B4014500F4020500F4024500F40A0
:4001800030500F400000055134500F4000700F4001700F400000044008000440499224000001044089ED0800080104400C01044000020440080204408E0D00000003044062
:4001C000891D2600080304400004044008040440180404400600008004010B400802024008010B4001000080000002400C020B4010B5064C2378002B07D1054B002B02D058
:40020000044800E000BF0123237010BDE000002000000000602B000008B5084B002B03D00748084900E000BF07480368002B00D108BD064B002BFBD09847F9E700000000F6
:40024000602B0000E4000020C8000020000000000122014B1A707047FC00002010B50C1C034B4201D118201C132201F091F810BD8C0300200023F0B5411E184C49010C1973
:40028000174AD25CE2540133202BF9D10023011C144D9A1C5E19B778303192B28F4217D1F1783A2914D1261C931C22329BB292B2301B81B2E85C202806D901339BB2F07183
:4002C00001369342F4D1202100236118CB7103E0054A01339342DAD1F0BDC0468C030020603600000C040020FE030000F8B5012002F032FB012002F087FA544802F05EFB9D
:4003000000F044F9002002F027FB002002F07CFA00234F484F4E03704370023383708133C370343B0371453B4371A0338371553BC371543B835562B6051C474B1A78002AB8
:4003400003D000221A7000F021F902F057FA041E072CFAD0032849D9062002F025F9062002F0D6F8052C16D102F07CF9041C02F073F9C823DB01E41800022418A4B2285D50
:400380002C19C043C0B202F003F96078C043C0B202F04AF919E002F065F9041C02F05CF92E4B0002E418241802F0EEFAA4B22C4F002803D03B195878C043C0B202F034F952
:4003C000385DC043C0B202F0E3F8002002F038F902F014FA0728FBD1063802F0E5F8012002F096F8012002F02BF9A6E702F03AF9041C02F031F9C823DB01E4180002241814
:4004000002F0CCF8C043A4B2285502F013F9C0432B195870002002F013F902F0EFF90728FBD1063802F00CF9B44286D1012002F0EBF9012002F090FA281C01F055FC002074
:4004400002F0E2F9002002F087FA76E7510200000C040020FE030000FC0000200080FFFF642B000010B50024201C02F075FA0123FA201C1B02F010F9044BE4B21A78002A7B
:40048000F2D000221A70FFF731FFC046FC00002013B5184C1849201C012200F079FF002801D0FFF7DFFF8022201C1449D20001AB01F088F80028F4D1019B114A190A1370B1
:4004C000517010498B4204D80020D11808700133F7E70120FFF7CEFE0220FFF7CBFE0320FFF7C8FE0420FFF7C5FE201C01F028FA13BDC04664030020883600000E0400208A
:400500000C040020FF01000008B50349002000F023FFFFF7BDFF08BD3401002013B5174C1749201C022200F033FF011E01D0FFF799FF201C01F02AFA201C01F019FB00283F
:40054000F5D1104B201C5A78197812028A1801AB0D4901F0E5F80028E9D10130FFF78AFE0220FFF787FE0320FFF784FE0420FFF781FE201C01F0E4F913BDC046640300206C
:40058000883600000C0400200E040020FA2010B5400002F081F80020114900F0DDFE00230A21104AD15480220133D2009342F7D10D4C0E49201C122200F0EAFE011E01D052
:4005C000FFF750FF201C01F0E1F9201C01F0D0FA0028F5D1201C01F0B3F9FFF759FF10BD340100200C0400200C08002091360000002310B5934203D0CC5CC4540133F9E772
:4006000010BD0000F0B50024231C164D2A1D161F3668002E0BD00768BE4209D116688768BE4205D19788C688B74201D105E0013401330C32032BEAD10CE0102000290FD101
:400640000C225343EB1858890138FF3842424241100105E00020844202D1022900D01220F0BDC0460001002070B50C1C03690934002B37D04369221C00201D5C202D07D0DC
:40068000052D00D1E0352554013001320828F4D1187A20280ED02E201070181C151D083001320478202C05D00132561E34700130AA42F6D1D87A0872D87F0406987F0004E5
:4006C00020431C7F20435C7F240220430860587E1C7E00022043141C8880D87D9B7D00020343CB800023237070BDF7B5C66A8E4201D1002032E003790D1C041C002B02D16A
:40070000002DF6D020E0031C30330193191C4078321C012301F002FE002801D001201DE0E369226A20719B189E42E9D2E778012FE6D9E3696078F6180199321C0123013FC6
:4007400001F0ECFDFFB2F2E7211C607830312A1C012301F0A9FD0028E0D1E562FEBD000010B5041C0A1C211C40783031012301F09BFD011C0320002939D11D4B1D4AE35C34
:40078000A25C1B0213431C4A1BB2013893422ED1231C69331B78081C1A06231C68331B781B041343221C663212781343221C6732127812021343114A1B021B0A934216D01B
:4007C000231C85331878013B1B7800061B041843231C82331B788334184323781B0218430002074B000AC018431E9841C0B210BD2F0200002E02000055AAFFFF464154008F
:40080000BABEABFFF0B5036885B01C78303C092C06D9CA4B5C6A0C230C60002C0AD189E15D783A2DF5D1023303600B23002C00D080E1EEE72378151C002B0DD0607801F0BF
:4008400021FD0123034007D1002D00D172E1420700D46FE10A236DE100202070607001F01BFD0323C20700D564E1002D01D04307F0D4201C0021FFF773FF002601281BD144
:40088000F9235B00E35CB34201D10D2352E1FA23FF33E65C013BE35C36061B041E43FB235B00E25CF823FF33E35C16431B021E43201C311CFFF754FF0123032800D139E16A
:4008C0000028E2D1231C221C3C331B783B3212781B02134380221BB292009342D5D1231C221C47331B78463212781B02134311D1231C57331B781A06231C56331B781B04E1
:400900001343221C543212781343221C55321278120213430093009BE361231C40331A78531EE270012BB0D8231C3D331978A1700029AAD04B1E1942A7D1231C42331F785C
:40094000013B1B783F021F4327813B079DD1231C44331878013B1B780002184310D1231C53331878013B1B7800061B041843231C50331B781843231C51331B781B02184338
:40098000231C251C3F331B783E352D781B021D43019500D179E7009B53430393039A3B095B199B180293984200D26EE7C01A02F017F8002800D168E7614B0125984204D945
:4009C000604D8542AD416D420235029B02309B19A362019BA061F3182362032D17D1002F00D052E7231C5F331B7880001A06231C5E331B781B041343221C5C321278134322
:400A0000221C5D3212781202134363620FE0002F00D13AE7039AD3186362022D01D1400005E003230122434310405B081818464BC018009B400A834200D226E701235B4248
:400A400023610023E360032D61D16371231C61331A78013B1B7812021A43B218261C303662616078311C012301F01EFC00284ED1364B374AE35CA25C1B021343354A1BB2E3
:400A8000934244D1231C33331B781A06231C32331B781B04134332781343221C31321278120213432C4A934231D12C4BE35C1A062B4BE35C1B04134385229200A25C1343D9
:400AC000284AA25C12021343274A93421FD1274BE35C1A06264BE35C1B04134387229200A25C1343234AA25C12021343E360224BE35C1A06214BE35C1B0413438622920023
:400B0000A25C13431E4AA25C1202134323610B4A2570138D01339BB21385E3800023E3622371D158A14201D10021D1500C33242BF7D10023181C05B0F0BDC04600010020B5
:400B4000F50F0000F5FF0000FF0100002F0200002E02000055AAFFFF52526141170200001602000015020000727241611F0200001E0200001D0200001B0200001A02000072
:400B80001902000008B5092300280CD00278002A09D0C2888A4206D1407801F073FB0323C007C0170340181C08BD000038B50021041CFFF79AFD031E56D12278032A4BD1C6
:400BC0006279002A48D0211C8C223031E3620B1C9200A218934203D0002018700133F9E75522224B4120E254214B9218E254221CDE3BFF3B31320B701370231C6122323390
:400C000085251A7058707223AD006355194D6355194BE054194BE2542369B832FF32A354174A180AA054174A180CA054164A1B0EA354E3680132A354144A180AA054144A19
:400C4000180CA054134A1B0EA35460780123626901F064FB00236371002160780A1C01F0A9FB431E9841C0B238BDC0462E0200002F020000150200001602000017020000CD
:400C8000190200001A0200001B0200001D0200001E0200001F020000836902399A1E0023914203D28378826A59438B18181C7047F7B50124A14265D98369994262D203785D
:400CC0000F1C051C022B2AD0032B3CD0A34257D14E087618036A710AC918FFF706FD00284ED1F305DB0DEB1830331B78013601932B6A710AC918281CFFF7F7FC00283FD153
:400D0000F605F60DAD1930352B78019A1B021343274201D01C0935E01C05240D32E0036A090AC918FFF7E1FC002829D1FF237F005B001F40EB193037ED1930336C781B7805
:400D400024021C431EE0036AC909C918FFF7CDFC002815D1FD30BF00FF3007403A1C3032AA189478D37824041B061C435378EF191B0230371C433B781C432401240901E02D
:400D800001246442201CFEBD70B5041C0D1CE1808168012901D1022039E003689A699142F9D200290FD11A78032A02D1596A002909D10022E2601A89AA42ECD95A6A290967
:400DC0008B18236119E09E783601B5420ED32068FFF76EFF011C431C18D00128DBD923689B699842D7D2AD1BADB2EEE7E1602068FFF752FF2B09181820610F231D406D0182
:400E0000236830355D196561002000E0012070BDF7B5041C0E1C151C0220012979D9A369994276D22778874241D0032F53D0012F6DD14B085B18590A0193236A201CC918A1
:400E4000FFF753FC002862D1019B3E40DB05DB0DE318EAB2002E08D01A1C303211780F220A40E9B209010A43D2B230331A700123019F23710137236A790AC918201CFFF7A1
:400E800034FC002843D1FF05FF0DE719002E02D02D09EDB208E03B1C30331A780F232D0A9A432B401A43151C30373D702FE0236A090AC918201CFFF718FC002827D1FF2342
:400EC00076005B001E40A319303330361D70A6192D0A75701BE0236AC909C918201CFFF704FC002813D1FE23B6005B001E40331C3033E318DA78A6191209120715432A0A4F
:400F0000303635705A702A0C2D0E9A70DD7001232371FEBDF8B5051C0E1E06D1C768002F0ED083699F420CD30AE0FFF7C1FE0124A0423ED9AB69041C371C984201D238E0DF
:400F400001273C1CAB6901349C4204D3012F01D800242EE00224281C211CFFF7A9FE002808D0431C01D0012801D1041C21E0BC42E8D1EDE7281C211C0F4AFFF749FF00285D
:400F800011D1002E08D12B69EC605A1C11D0013B2B6101236B710CE0281C311C221CFFF737FF0028EFD0013844424441604201240443201CF8BDC046FFFFFF0FF7B5C6882C
:400FC0000136B6B2002E01D1042071E00369002BFAD00F2232400F1C041C0192002A5FD1C168013303610068002903D10389B342EAD955E083783209013B1A4250D1FFF71D
:4010000057FE051E012D01D8022051E0431C01D101204DE0206883699D423BD3002FD3D0E168FFF777FF051C0720002D40D0012DEAD06B1CECD020680021FFF756FB0028AF
:40104000E6D123688C211A1C890030325B189A4203D0002111700132F9E72768291C381CFFF71AFEF862002723689A78BA420ED901221A7120680021FFF737FB0028C7D113
:4010800022680137D36AFFB20133D362ECE7DA6AD71BDF62E5602068291CFFF7FDFD20610020019B22685B013033D318E6806361FEBD0000F7B50B78041C0D1C2F2B01D0D2
:4010C0005C2B00D101350026A6602B781F2B06D8201C311CFFF758FE6661B4E001352B782F2BFBD05C2BF9D0A069021C031C0B32934203D0202119700133F9E70021082299
:401100000B1C00920A1C5F1CEB5C0197202B19D92F2B17D05C2B15D02E2B78D0009EB14273D25FB2002F04DA03273A43464F803BFB5C0027454EF65D002E72D001379E4214
:40114000F8D162E0019E0027AD1920269E427F41BB00002959D00178E52901D1E03901700099082901D19200D2B203211140012902D10F310B43DBB20C210A40042A02D14B
:4011800004321343DBB2C3720021201CFFF7FCFD00281CD120682169FFF7A7FA002816D161690B78002B11D00823CA7A1A4008D1A6698B5CB05C0132181A02D10B2AF8D195
:4011C00005E0201C0021FFF7F9FEE1E70420A369DB7A002805D0042835D1034233D1013031E05B072FD46069C37ADB060BD5437D017D1B020B43C27E1904837E120213431C
:401200000B43A3606BE705201DE006201BE0009B082BFAD10B2392000099D2B20093019B71E71F1C413F192F02D802273A4307E01F1C613F192F03D80127203B3A43DBB2D6
:4012400043540131EBE7FEBD9A3600001A37000038B50021041CFFF797FD051E27D120682169FFF742FA051E21D163691B78E52B06D0002B04D0201C0121FFF79FFEECE7C3
:4012800020682169FFF731FA051E10D16069021C031C2032934203D0002119700133F9E70B22A169FFF7A4F9012223681A71281C38BD10B5041C04202169002918D02068D1
:4012C000FFF713FA002815D162691378002B14D0E52B06D02E2B04D0D37A1B0701D400200DE0201C0021FFF769FE0028E4D001E00028F4D00023236101E00420FAE710BD57
:4013000070B5041C0D1E012D01D8022022E083699942FAD2A3699D4205D2201C291CFFF7C7FC061E01D1002014E00128EDD0431C0FD0201C291C0022FFF76AFD002809D153
:4013400023695A1C03D00133236101236371351CE0E7012070BD000010B50B23002813D10A4B5A6A002A09D01C58944201D100241C500C302428F7D100201070002901D0D1
:4013800000220A7059620023181C10BD000100200023F0B503601F331340151C1E228FB007AE0391071C2A4003A8311C0093FFF729FA04ABB361002803D1301C0399FFF7FA
:4013C00079FE746900280AD10630002C07D001230099301C99434B1E9941FFF713F91C231D4258D0002817D004280DD1744B1A68002A00D1DEE0DA68002A00D1DAE09B695F
:40140000002B00D1D6E00E300823009A74691A43009200280AD0D1E01123E27A07201A4200D0CBE001306B0700D5C7E0009B1B073FD501F01FF8030AE373030C23740023C6
:40144000657D227D2D021543E27EA0732904000EA57E607412020798E37223776377A377E377A376E37623756375154301330D4303711ED0C36A291C0193FFF741FF00284B
:4014800000D09BE03068013DC5600199FFF72DF900280ED092E0002800D08FE0E37A0430DA0600D58AE0AA0703D50330DB0700D584E0009B1B0703D52023009A1A43009269
:4014C000079A009DD36A3C62FB6101239D43B3683B489C46F388011D0193002302900E1F3668964206D10E68664503D18E880198864211D001330C31032BF0D130490B68FE
:40150000081C002B14D0CB68002B10D0002183698B422BD102230BE0002D17D00C2159430298401800214089884217D01EE001230C215943099E425041184E6007A8C088C8
:401540000E1C0881002171818D4207D10C2159431B4841184889013080B201E0802040000C215943164D69184881591C79620220002923D06B461B78BB71637D207D1B0276
:40158000E17E03431804A37E09020B43034300203B61E37F1906A37F1B040B43217F0B43617FB86009020B43FB60B8613A60D388BB8003E0301CFFF74BFE25E70FB0F0BD15
:4015C00000010020F0B51E1C002385B000913360041C81880068151CFFF7D4FA002800D09CE0A37902305AB2002A00DA96E00530DB0700D492E0E368A2682F1C9B1A9D4210
:401600003BD91F1C39E0A268D30564D12068530A8578013D2B40DBB20193002B30D023686169181C0293FFF737FB00283CD0019B7D0AC3180393002D4BD0029B019A9B78B3
:40164000AA189A4201D9019A9D1A029B00995878039AEBB200F028FE00284CD121680B79002B28D16D02009B7F1B5B190093A3685B19A36033685B193360002FC3D14CE016
:40168000002A01D1206902E06169FFF711FB012806D88022A37952421343A37102203DE0431C01D06061BAE78022A37952421343A371023032E0CB6A039A981AA842D1D252
:4016C0008022009B4002181830319200FEF790FFC8E7039BA3618022A3689200DB05DB0DD31A3D1E9D4200D91D1C2068A169FEF7FCFF002806D08022A37952421343A371F7
:4017000001200BE0A3680098D905C90D2368303159182A1CFEF76CFFA5E7381C05B0F0BDF0B51F1C002385B03B6001918188041C0068161CFFF726FA031E00D0C0E002220E
:40174000A179131C4DB2002D00DAB9E00533114200D1B5E0E368F2189A42404140420640002E1AD0A268D30576D12068530A8578013D2B40DDB2002D1BD1002A07D1216916
:40178000002911D1FFF7C6FB011C206103E06169FFF7C0FB011C002906D1A368E268934200D888E0E36086E0012914D04B1C63D061612068A269C36A934204D10021FEF751
:4017C00094FF002858D123686169181C0293FFF763FA002806D18022A37952421343A37102236DE043190393730A009325D0029B009A9B7852199A4201D95B1B0093029B5F
:40180000019958786B46039A1B7800F087FD051E32D12068039AC36A991A009B994209D28022019B4902591830309200FEF7E0FE23681D71009B5D0232E0A368E26893425F
:4018400008D302980099FEF750FF002814D12368039ADA62039BA3618022A3689200DB05DB0DD31A351E9D4200D91D1C2068A169FEF73BFF002806D08022A3795242134364
:40188000A37101231CE0A3682A1CD805C00D2368303018180199FEF7ABFE012322681371019B761B5B190193A3685B19A3603B685B193B6054E72022A3791343A3710023E5
:4018C000181C05B0F0BD70B5041C81880068FFF759F9002833D12026A37933422FD02068E169FEF702FF002829D1256AEB7A3343EB72237B2B77637B6B77E3681B0CAB770D
:40190000E3681B0EEB77237CAB76637CEB7623691B0C2B7523691B0E6B7500F0ABFD030AA875EB75030C000E2B766876A3792268B343A371012313712068FFF737F970BDF8
:40194000F8B5041CFFF7BFFF00281AD1636A013B022B12D80C22151C5D430A490A4F4D196E89051C3E4201D0751EADB25343CA185581002D03D1CD5001E0022001E00023D4
:401980002360F8BD00010020FFFEFFFFF7B5041C0D1C81880068FFF7F5F8002800D089E0A279023053B2002B00DA83E0E3689D4202D9024200D11D1C0022A368A260954216
:4019C00001D1002066E02768BE787602002B14D0013B311C681E009301F002F8311C0190009800F0FDFF019B834206D3009A73421A40A260AD1A61690CE02169002908D186
:401A0000381CFFF787FA011E012924D0431C1BD0206161610029D4D00AE001291BD923689B69994217D2A36861619B19A360AD1BB5421CD9A37920689B0713D5FFF76AFA29
:401A4000011E13D04B1CE8D18022A37952421343A37101202EE08022A37952421343A371022027E0FFF724F9011CEBE7351CA3685B19A360EB05A4D02068FFF70DF900288F
:401A800006D18022A37952421343A371023011E06D0A4019A368DA0503D0A269904200D0A061E2680020934204D92022E360A3791343A371FEBD10B5041C86B0019101A8FD
:401AC000211C0022FEF79EFE002823D103ABA361201C0199FFF7EEFA002819D1606900280FD0C37ADB0601D4052013E0437D017D1B020B43C27E1904837E120213430B43C8
:401B0000A3602368201CDB880021A380FFF73CF90428E9D006B010BD7FB5041C0E1C81880068FFF72FF8051E1FD1002E04D1201C291CFFF729F917E001ABA361201CFFF70D
:401B4000B8FB042801D1256101E000280CD1201C311CFEF789FD201C0021FFF72FFA042802D10023236100E0051C281C04B070BDF8B5041C81880068FFF704F8051E3ED19A
:401B8000A37902275AB2002A33DB3B4233D0A668E268B24233D920221343E660A3712068002E05D12169FFF7ABFB2661051C18E06169FFF77DF8061C431C1ED0012801D1E1
:401BC0003D1C10E0206883699E4218D261690D4AFFF71EF9051E06D12068311CFFF790FB051C002D0BD08022A37952421343A37105E03D1C03E0072501E00125F3E7281C89
:401C0000F8BDC046FFFFFF0F08B500F015FE08BD08B500F02DFE00F039FE0028FBD100F01FFE0028FBD000F015FEC0B208BD08B5FF20FFF7EDFF08BDF0B591B0061C00910F
:401C400009A81A490192FFF736FF002801D0FEF709FC00252C1C03AF09A8391CFFF75CFF00281AD17B7A002B17D02E2BF3D0009B9C4210DB019A9B189C420CDA002A0ADD6C
:401C80002B1C013303A95A1B8A18127AF118CA70002AF6D11D1C0134DDE73570B4702D1224127570F47011B0F0BDC0462937000020220C4B10B51A705A709A70DA701A7108
:401CC0005A7100220521DA710A329A71002807D0072202404C1E30325A54C008E1B2F5E710BDC0465C080020F0B5B34A87B0835C041C0392002B02D1FEF706FC59E1052B01
:401D000004D1FA20800000F0DDFC52E1042B58D18378002B00D14CE100238022A7499200C95C9A180133A1540B2BF6D1A44D0322A449281CFFF72CFBE968281CFFF726FE65
:401D400080239B00E118281C0A2205ABFFF7E8FC002801D0022323709B4B1868421C80B21A60FFF7A5FF994F281C391C072205ABFFF7D6FC002801D0022323700026A37863
:401D8000B34216D9331D5B00E2185078E35C0002181880B2FFF78CFF281C391C072205ABFFF7BEFC002801D0022323700136B6B2E5E7281CFFF7C4FD0223002800D0F1E087
:401DC000F7E0062B02D1FEF763FBF2E0072B02D1FEF7A4FBEDE0082B0AD141780378C27809025918837812029A18FFF725FFE0E0774D032B05D87F23C078291C1840FEF7AF
:401E00002DFAA378012B06D0032B08D1FD3302930127FF2607E050230027029302E05023012702930A26311C6A48029A0388019059434A43002F00D05200E868002800D173
:401E4000B2E0904207D0002F01D05900714300F0C7FD83B20293039BE35C022B12D8A278032A0DD8227902998A4209D26279002A06D0B24204D8002F11D1E2787F2A0ED9F9
:401E8000012389E0032B0AD1A278032AF8D8227902998A42F4D26279002AF1D0EBE700222270012B1FD12179019B7143013779431A886379013BC918E37851437F2B01D959
:401EC00056438919281CFFF761FD211C019B281C1A88083105ABFFF775FB059B00281FD00530207022E0022B24D12179019B7143013779431A886379013BC918E3785143F9
:401F00007F2B01D956438919281CFFF73FFD211C019B281C1A88083105ABFFF701FC059B019A1288934201D202222270A3711B0AE37132E0032B34D1217901377143019BAA
:401F400079431B88E27859437F2A01D97343C918281CFFF71BFD0023019A12885208934209D2A1791A1D5200A154E179A218013351709BB2F0E70027B7420ED2211C019BA0
:401F8000281C1A88083105ABFFF7CAFB002802D10137BFB2F0E702232370281CFFF7D0FC07E00423237004E0281C111CFFF7EEFC51E707B0F0BDC046FE030000303700007E
:401FC0000C080020913600002C0100205C08002034080020CC00002070B5051C0E1C041CFFF725FE20700134A31BAB42F8D170BD37B50A4C6B46DD1D281C0121FFF7ECFF8A
:402000002B78FF2B05D06420013C00F05BFB002CF0D1201C441EA0413EBDC04688130000F7B5FA25071C0E1CAD0001AC201C0121FFF7D2FF2378FF2B0DD023780020FE2BD2
:4020400010D1381C311CFFF7C7FF201C0221FFF7C3FF012006E06420013D00F033FB002DE3D1EAE7FEBD07B5012000F081FC6B460121D81DFFF7B0FF07BD13B5002000F064
:4020800077FC6B460121D81DFFF7A6FFFFF7B0FF041E02D1FFF7E7FF00E00124201C16BD70B5051C0E1C041C20780134FFF7B0FDA31BAB42F8D170BD30B543B285B0041CF0
:4020C0000D1C002B07DA37200021FFF7F5FF012838D87F231C400C2C0ED1402302A8234303702B0E43702B0C83702B0AC37005719523002C0DD008E0FFF7B5FFFFF7BDFF1C
:40210000031CFF20002B1DD0E7E78723082C00D0863B06214371FFF7C3FF6B46DD1D0C2C03D1281C0121FFF757FF0A24281C0121FFF752FF287843B2002B03DA013CE4B2C5
:40214000002CF3D105B030BDF7B5071C0E1CFFF74FFF041E1BD001AD281C01212E700124FFF79EFFFD2E12D08021381C8900FFF797FF281C0221FFF72FFF281C211CFFF700
:402180002BFF1F2328781840053844424441201CFEBD00007FB5FFF737FD1424013CE4B2FFF745FD002CF9D1201C211CFFF784FF051E012D01D0002453E0D5210820490013
:4021C000FFF77AFF01281BD101AC201C0421FFF703FFA378012BEED1E378AA2BEBD1FA25AD008021A920C905FFF766FF011E20D0FA20013D800000F065FA002DF1D1DAE71E
:40220000211CA920FFF758FF2C1C012801D8A9250224FA26B600281C0021FFF74DFF002816D0FA20013E800000F04CFA002EF2D1C1E73A20FFF740FF0028BCD1201C042135
:40224000FFF7CAFE23780C245B060AD4042408E0802110208900FFF72FFF4342584140420440064B1C7063425C41054BE4B21C70FFF7F9FE201C04B070BDC0463001002032
:40228000CE0000200123002801D1024B1B78181C7047C046CE00002008B5031C0320002B01D1FFF777FF08BD70B51D1C01230E1C191C002801D1174909780320194228D1F3
:4022C000154B1B781B0700D452020124AC42A44164421134201C111CFFF7EEFE002812D18021301C8900FFF79BFE002805D08023013D9B00F618002DF2D1122C03D10C20AE
:402300000021FFF7D9FEFFF7AEFE2B1C5D1EAB41D8B270BDCE0000203001002070B51C1C0123161C0D1C1A1C002801D11F4A127803201A4238D11E4B1B781A0700D4760279
:40234000012C0CD11820311CFFF7B6FE002826D1281CFE21FFF7F8FE444244411FE00622134203D09720211CFFF7A6FE1920311CFFF7A2FE002812D1281CFC21FFF7E4FE6E
:40238000002805D08023013C9B00ED18002CF3D10020FD21FFF7D8FE002800D10124601E8441FFF760FEE0B270BDC046CE000020300100200123F0B51C1C85B0002801D1BD
:4023C0002B4804781C400326002C4ED1151C01290CD0002904D0B14243D18023136041E0FFF74BFE44424441E4B23BE0211C0920FFF762FE041E01D0012433E068461021EB
:40240000FFF70EFE0028F7D06B466A461878517A8009DB79127A012808D13E3003401E04120201368A18B118890218E09B009209D2186B469B79314033409B02D3186A4677
:4024400057790F2217406A46927A4E00D0093A1802329119C9B2093901338B40191C296000E00424FFF7FFFD261C301C05B0F0BDCE0000200048704721038F40FEE70000C8
:4024800070B51049104B01394A1C15D000221E685C689D68A018AA4203D0B058A0500432F8E7021CDC68151AA54202D0002520C2F9E710330139E7E700F024FBFDF716FF35
:4024C000FEE7C04601000000EC39000008B500239A000B49032B01D80A4989580A4801338150302BF4D1FDF797FD0022074B01211A608022D20513680B43136008BDC04633
:402500007D2400000000000000000020C0000020072110B53824174B1A688A4302431A601A68C100A2430A431A601A68124984010A4022431A601A68104944020A402243F7
:402540001A601A680E4904030A4022431A601A680C49C4030A4022431A601A680A4984040A4022431A601968084A40050A401043186010BD080204403FFEFFFFFFF1FFFF1A
:40258000FF8FFFFFFF7FFCFFFFFFE3FFFFFF1FFF014B1A681860704700020440014B1868C0B2704704020440072110B53824174B1A688A4302431A601A68C100A2430A436A
:4025C0001A601A68124984010A4022431A601A68104944020A4022431A601A680E4904030A4022431A601A680C49C4030A4022431A601A680A4984040A4022431A601968B5
:40260000084A40050A401043186010BD080004403FFEFFFFFFF1FFFFFF8FFFFFFF7FFCFFFFFFE3FFFFFF1FFF014B1A681860704700000440014B1868C0B27047040004402D
:402640002023044940010A689A43D2B2034013430B60704700030440014B1878C0B2704761000F40014B1878C0B2704762000F400230800804D0C0460138FDD1C046C046A2
:40268000C0467047EFF3108072B6704780F310887047C046C046C04610B5041C8022074B1202944205D91868FFF7E2FF044BE418F4E758686043FFF7DBFF10BDD00000202A
:4026C0000080FFFF08B5034B1B7A5843FFF7D0FF08BDC046D0000020F0B5051C87B0FFF7D1FFEB1E049003932D2B5BD8304B1B789D4204D82F4B1C782F4BE4B21EE02F4BC1
:402700001B789D4204D82E4B1C782E4BE4B215E02D4B1B789D4204D82C4B1C782C4BE4B20CE02C4B1B789D4204D82B4B1C782B4BE4B203E02A4B1C782A4BE4B21B78039A6E
:40274000DBB20193284B294F9A5C059302922F2A04D92A2D02D919263E6008E03F233E681E40029BB34205D2204B029A1A600520FFF77EFF1B4B1E4AED182B780520DBB2EE
:4027800013601C4B019A1C601B4B1A60FFF79AFF029BB34206D9059B039A05209B5C3B60FFF766FF0498FFF771FF07B0F0BDC046C0F1FF0FC1F1FF0FC2F1FF0FC3F1FF0F8B
:4027C000C4F1FF0FC5F1FF0FC6F1FF0FC7F1FF0FC8F1FF0FC9F1FF0FCAF1FF0FCBF1FF0FCCF1FF0FCDF1FF0F983900002CFF0B4028FF0B401CFF0B4020FF0B40014B1878A9
:40280000C0B2704763000F400423044980000A689A43D2B2034013430B607047000104408021044A08B5136809060B43136000F035F808BD0000064010B5054C2378002BFB
:4028400003D100F049F801232370FFF7E9FF10BD31010020014B18687047C04640030640024B18680F2318407047C04608030640044B1A680F231340082BF9D0024B186011
:402880007047C0460802064040020640024B18680F2318407047C04608020640F021054B09011A680A43F0211A601A6809020A431A607047100001400549064B0A68800667
:4028C0001340C02212051040184308607047C04620000640FFFFFFF30721002008B50F4A0F4B1A600F4A104B1A60104B104A1360104A1160104A1360104B1860104B1860A0
:40290000104B1860104B1860104B1860104B1860104B1860FFF7D0FF08BDC0460F0000010000064001000080200006400701008000030640040306400002064004020640F9
:40294000880E0640C80E0640480F0640080F0640C80F0640880F064008230449C0000A689A43D2B2034013430B607047000104401023044900010A689A43D2B20340134373
:402980000B60704700010440024B18688006C00F7047C0460401044010B5041CFFF772FE0449054A0B68A403134023430B60FFF76DFE10BD00E400E0FF3FFFFF10B502244A
:4029C000044B1C60044B58640320FFF7E5FF034B1C6010BD80E100E00000002000E100E0002243088B4274D303098B425FD3030A8B4244D3030B8B4228D3030C8B420DD33C
:402A0000FF22090212BA030C8B4202D31212090265D0030B8B4219D300E0090AC30B8B4201D3CB03C01A5241830B8B4201D38B03C01A5241430B8B4201D34B03C01A524151
:402A4000030B8B4201D30B03C01A5241C30A8B4201D3CB02C01A5241830A8B4201D38B02C01A5241430A8B4201D34B02C01A5241030A8B4201D30B02C01A5241CDD2C30921
:402A80008B4201D3CB01C01A524183098B4201D38B01C01A524143098B4201D34B01C01A524103098B4201D30B01C01A5241C3088B4201D3CB00C01A524183088B4201D37A
:402AC0008B00C01A524143088B4201D34B00C01A5241411A00D20146524110467047FFE701B5002000F00CF802BDC0460029F7D003B5FFF775FF0EBC4243891A1847C04648
:402B00007047C0460E4B70B500251E1C0D4CE41AA410A54204D0AB00F35898470135F8E700F052FF084B00251E1C084CE41AA410A54204D0AB00F35898470135F8E770BD80
:402B4000D4390000D4390000D4390000DC390000031C8218934202D019700133FAE7704700000000A000C015C400A0005F0044000000000000000000DC000000000000000C
:402B80000000000000000000000000000000000000000000DC000000DC0000000000000000000000DC000000C615F401C1156601DF09CE00DF174A02A401DF099A00DF8BEB
:402BC000A2010503C1157801DF09CE0000005F0000106610C11574FFC9B58000FD03810A810A0990811587006610C115BCFDC9B58000FD03810A810A099081158700C31586
:402C0000A201000AC090DF098400C300C090DF098400C015FF00DF098400DF098400DF358000BCFDFC038700C1159201DF09CE000000000A4094DF096E00C00BFB0287008B
:402C40000200000000000000000000000000000000000000DC000000DC000000DC000000DC00000000000000000000000000000000000000000000000000000000000000E2
:402C80000000000000000000000000000000000000000000DC000000DC000000DC000000DC000000C015E4004210810C810C810CC245F8FFC2653000A090C025DE00F402B4
:402CC000C115DE00DF09CE008700424F4F543020FAC1C7D2D5D6C5CE0A0D0000424F4F543120EFDBC9C2CBC120DAC1C7D2D5DACBC9200A0D0000F0D2C5D2D9D7C1CEC9C55C
:402D000020340A0D000000081100000200107C040000000000000000000000000000000000000000000000000000000000000000000000000000000000000000000000007D
:402D4000000000000000000000000000000000000000000000000000000000000000000000000000A000C1159E12DF09CE00C115A201D115000177127403D1151A00D11531
:402D80000000D115FFFFDF099A00C115A201D1150002DF17A801F601DF099A00DFE5BF02F601C115A201D1150001D1151A00110AD117F601DF099A00DF17A601F801DF1750
:402DC000A801F601C115A201D1150001D1151A00110AD115BA02DF099A00DF8BA2010403C115FC12DF09CE00DF17A601FA01DF17A801FC01DF17F801A601DF17F601A80186
:402E0000DF150002A201DF099A00DF17FA01A601DF17FC01A801C115B012DF09CE00C117A601DF094001C115C812DF09CE00DF158413A801DF15BA02AA01DF150010A201B1
:402E4000DF099A00DF8BA2010403C1151A13DF09CE00C115CC12DF09CE00DF150018A201DF099A00DF8BA2010403C1154013DF09CE00C115EA12DF09CE00C115DE00DF0951
:402E8000CE00C115C812DF09CE00C1152800C0150010017E447EC115A201D1150008D11D4C02D115001CD1150020D115FF00DF099A00C1150020C90B140344144210C11547
:402EC0008E12DF09CE00C3150A00C5150D008094DF096E0003A003024011DF096E00097F0401C1156A12DF09CE00A000C6156812C1152C12D1150008D1150200D11500019F
:402F0000D1150000D1150001C0150020017EF7091A00C0150000DF25A000000002025F000000C1155813F70958000000C3152C12000AC090F7091E00C300C090F70916000A
:402F4000C015FF00F7090E00F7090A00DF358000BCFDFC0387006610C115BCFDC9B58000FD03810A810A0990811587006610C11574FFC9B58000FD03810A810A09908115C1
:402F80008700000A4094F709E2FFC00BFB0287000000000000000000000000000000000000000000000000000000000000000000000000000000000000000000000000007C
:402FC0000000000000000000000000000000EFDBC9C2CBC120DED4C5CEC9D1206D61702E74787420D32053442DCBC1D2D4D90A0D000073642F6D61702E747874203A0A0DC9
:403000000000424F4F543120FAD5C7D2D5D6C5CE0A0D0000F0C1CDD1D4D820F0F020D7D9C4C5CCC5CEC12020402000000A0D0000424F4F543220FAC1C7D2D5D6C5CE20D714
:4030400020D0C1CDD1D4D820F0F00A0D0000424F4F543220FAC1D0D5DDC5CE2040200000EFDBC9C2CBC120D7D9C4C5CCC5CEC9D120D0C1CDD1D4C920F0F00A0D0000EFDB68
:40308000C9C2CBC120DAC1C7D2D5DACBC920424F4F543220D720D0C1CDD1D4D820F0F0200A0D0000EFDBC9C2CBC120DAC1D0D5D3CBC120424F4F54320A0D0000EFDBC9C221
:4030C000CBC12E20EEC5CBCFD2D2C5CBD4CED9CA20DAC1C7D2D5DACFDECED9CA20D3C5CBD4CFD22E0A0D0000A00077004E050000000000000000F717C8FFF8FFF717CEFFC1
:40310000F0FFDF451000C8FFDF450800CEFFDF550400CEFFDF350100CEFFFC022610C08DC05580008015F7172CFEC4FFC41DBEFFC400C48B0303C4150A000201C4150200A7
:403140001F112CFE8700DF1DA6FF2CFEDF1DA2FFCEFFDF1D9EFFC8FF2610C08DC045800080158700C111C16558005F10460E8700F70982FFDF150500FE9FF709C8FFF7093D
:4031800074FFF709C0FF87006610F70968FFC115089CC51506005F11029C1F1008FED1170CFE800A467FDF150400FE9FF70996FFF70942FFF7098EFF81158700A000A00046
:4031C000A000F7099EFFC0178026A100000C0110800A1F1008FEC0170CFE020A0290C20B0303972003000483DF0918AA5F0074F84010F7097AFF5F1008FEC0170CFEC000B1
:4032000017A003001E8317A008001D0317A010001D0317A018001D0317A041001D0317A042001D0317A043001D03C01509005F1008FE1F900CFEDF0A320EDF0B34FE5F0083
:4032400074F8000AF401F7092000F101F7093800EE01F7095000EB01F709AC02E801F7090C03E501F7095403E2016610F7097200F709B400F70B66000302F70B5E00F80245
:403280008115C01D580087006610F7095400F709D600F70B48000302F70B4000F8028115C01D3A0087006610F7093600F70946FE8013C06503001F1008FEDF170CFE069CDB
:4032C000DF150300FE9FF7097CFEF70928FEC017009CF70970FE811587000000000000000000F70910FE370AF6FF4210820AC415009C140A9F1008FED4170CFE820A9F1002
:4033000008FED4170CFE820A9F1008FEF7170CFEC8FF820A9F1008FEF7170CFEBEFF370ABCFFF70920FE8700F70BB4FF0303C01553001301F709BEFDDF150100FE9FF70977
:4033400004FEF709B0FDC017009C0702C017069CA100000CF70962000201371080FFF7093601F709E0FD8700F70B74FF0303C01553001C01F7097EFDF7096E00DF15020097
:40338000FE9FF709C0FDF7096CFDC017009C0E02C017069C376042FFA100000C37E03CFFF70B38FF0580370A32FF020137102EFFF709E400F7098EFD8700C11D1EFF0120BE
:4033C00001054010C11D12FFA100010C37E00CFFC215089C5F1008FE9F140CFE810A067EA100410C7710F2FE8700C11DEEFEC0150001012001054010C11DDEFEA100010C91
:40340000C215089C5F1008FED2170CFE810A067E87004F0000000A0000004F0001000A000000FF00010000010000C017049CC000C04500FF87002610C017049CC04500FFEC
:40344000C0008055C0001F10049C8700C017049CC04500FF87002610C017049CC045FF0080551F10049C8700C017029CC03500800202000A8700C01501008700C00B050314
:40348000C017029CC05500800401C017029CC04500801F10029C8700C017029CC04500FFC00AA100C00CC00CC00CC06562FFC061011402140314F70970FF800A0320030659
:4034C000F70972FF2001C0150100F70968FFF70996FFC00B0602800A02200306F7099CFF1201C0150100F7094CFFC0150000F7098AFFF70956FF800A01200306F70956FF55
:403500000201B70ADAFD87004010800A800A1F1008FEC0170CFEA100000C6610A610C115029CF709D0FBDF150600FE9FF70916FCF709C2FBC217009CC23501000103820A74
:40354000A100020C1F1008FE5F140CFE800A867EF709F2FB821581154010800A800A800A1F1008FEDF17009C0CFE000A87006610A6104010800A800A1F1008FEC2170CFE4A
:40358000A100020C800A1F1008FEC0170CFEC115009C0310A100430CF7095AFBD1109F1008FED1170CFE820A067EDF150700FE9FF70992FB82158115000A87006610810A76
:4035C000810A5F1008FEC0170CFE810A5F1008FEC2170CFEA100020C810A5F1008FEC3170CFEC515009CF7090CFB1510D510DF150800FE9FF7094EFBF709FAFA8113C415AA
:40360000009C0015C03501000102800AA100000CC16504005F1008FE1F150CFE810A5F1008FE1F100CFE9F1008FE1F150CFE820A067EF70910FB8115000A8700A000F709BE
:4036400022FBF709B0FADF150000FE9FF709F6FAF709A2FAF709EEFA87000000000000002F6469736B732F66696C656E616D6566696C656E616D6566696C656E616D655F59
:403680005F5F5F2E657874002F6D61702E747874002F6C6F672E74787400808182828485868788898A8B8C8D8E8F809192939495969798998A9B8C8D8E8FA0A2A2A3A4A515
:4036C000A6A7A8A9AAABACADAEAFB0B1B2B2A5B5B6B7A8B9AABBA3BDBDAFC0C1C2C3C4C5C6C7C8C9CACBCCCDCECFD0D1D2D3D4D5D6D7D8D9DADBDCDDDEDFC0C1C2C3C4C584
:40370000C6C7C8C9CACBCCCDCECFD0D1D2D3D4D5D6D7D8D9DADBDCDDDEDF222A2B2C3A3B3C3D3E3F5B5D7C7F002F6469736B73004C6F6720656E7472793A000038300F40B5
:403740003E310F4022320F4047330F400C400F400E410F400F420F4012430F4002600F400201030F0502060107010801090F0D040E010F01110F1201140115081701190FD0
:403780001A011C011D0F2201230F2601270F28012B0F2C012D0F32013501370E380839A03E043F50580459045F018D0498019902A802A901AC04AD08B002B102B204B30822
:4037C000B401B504B701D80BD90BDB04DC99DF0102850320081009020A120E041044120A13041510178019041EA01F202250249825022689284029112B212D802F0430A0AE
:40380000312032053302372038983A013B043D4045204604581059105A085B085EA25F086405650267107A027B017F80810283A084018510871688058C88C00FC24FC4CF52
:40384000CA3FCC2FCE1FD6F0D8F0DE800108020105040A010C08140219021D012004260128012C01300231013204330434083508360137023E40580B590B5B045C995F0194
:40388000A001A402B001B402D80BDB04DC09DF010440051106400C08110212101511178819201B021E641F80252826012702348037103C0A45284628580159045AA05B02E8
:4038C0005D205E466401662A7B807F80820183088612882089108A408B818C808D109040910192A0988099049A109B109D119E01A00DA101A4A0A783A941AB20AD80AE0416
:40390000AF04B101B294B440B610B710C0D0C220C4FCCC30CEC0D6FED8F0DE81EC10011003800724080809800F1483208780C0F0C2F0E080E4100310068083109E80A808D3
:40394000A980AB04AD10AF14B680C030E020E8D0ECB00001014004100680084009040E010F4088408B408C11C00FC20FE20DE6080002062009020A010F08880189028A0145
:403980008E208F04B281B544C00CC20BE203E607EA02EE0702011101030405060708090A0B0C0E0F101112131415161718191B1C1D1E1F2021222325262728292A2B2E2F78
:4039C0003031323334350000F8B5C046F8BC08BC9E46704719020000CD240000F8B5C046F8BC08BC9E467047F1010000003A0000C800002018000000880700000000000045
:403A000000000000000201000000C05D80BB000030000000006CDC0200000000000000000000000000000000000000000000000000000000000000000000000000000000B1
:403A40000000000000000000000000000000000000000000000000000000000000000000000000000000000000000000000000000000000000000000000000000000000046
:403A80000000000000000000000000000000000000000000000000000000000000000000000000000000000000000000000000000000000000000000000000000000000006
:403AC00000000000000000000000000000000000000000000000000000000000000000000000000000000000000000000000000000000000000000000000000000000000C6
:403B00000000000000000000000000000000000000000000000000000000000000000000000000000000000000000000000000000000000000000000000000000000000085
:0200000490303A
:02000000601985
:0200000490402A
:200000000000000000000000000000000000000000000000000000000000000000000000E0
:0200000490501A
:0C000000000204C81193110104DC71AC73
:0200000490600A
:0100000001FE
:00000001FF